{
  "contractName": "DeedRepository",
  "abi": [
    {
      "inputs": [
        {
          "internalType": "string",
          "name": "_name",
          "type": "string"
        },
        {
          "internalType": "string",
          "name": "_symbol",
          "type": "string"
        }
      ],
      "stateMutability": "nonpayable",
      "type": "constructor"
    },
    {
      "anonymous": false,
      "inputs": [
        {
          "indexed": true,
          "internalType": "address",
          "name": "_owner",
          "type": "address"
        },
        {
          "indexed": true,
          "internalType": "address",
          "name": "_approved",
          "type": "address"
        },
        {
          "indexed": false,
          "internalType": "uint256",
          "name": "_tokenId",
          "type": "uint256"
        }
      ],
      "name": "Approval",
      "type": "event"
    },
    {
      "anonymous": false,
      "inputs": [
        {
          "indexed": true,
          "internalType": "address",
          "name": "_owner",
          "type": "address"
        },
        {
          "indexed": true,
          "internalType": "address",
          "name": "_operator",
          "type": "address"
        },
        {
          "indexed": false,
          "internalType": "bool",
          "name": "_approved",
          "type": "bool"
        }
      ],
      "name": "ApprovalForAll",
      "type": "event"
    },
    {
      "anonymous": false,
      "inputs": [
        {
          "indexed": false,
          "internalType": "address",
          "name": "_by",
          "type": "address"
        },
        {
          "indexed": false,
          "internalType": "uint256",
          "name": "_tokenId",
          "type": "uint256"
        }
      ],
      "name": "DeedRegistered",
      "type": "event"
    },
    {
      "anonymous": false,
      "inputs": [
        {
          "indexed": true,
          "internalType": "address",
          "name": "_from",
          "type": "address"
        },
        {
          "indexed": true,
          "internalType": "address",
          "name": "_to",
          "type": "address"
        },
        {
          "indexed": false,
          "internalType": "uint256",
          "name": "_tokenId",
          "type": "uint256"
        }
      ],
      "name": "Transfer",
      "type": "event"
    },
    {
      "inputs": [
        {
          "internalType": "address",
          "name": "_to",
          "type": "address"
        },
        {
          "internalType": "uint256",
          "name": "_tokenId",
          "type": "uint256"
        }
      ],
      "name": "approve",
      "outputs": [],
      "stateMutability": "nonpayable",
      "type": "function"
    },
    {
      "inputs": [
        {
          "internalType": "address",
          "name": "_owner",
          "type": "address"
        }
      ],
      "name": "balanceOf",
      "outputs": [
        {
          "internalType": "uint256",
          "name": "",
          "type": "uint256"
        }
      ],
      "stateMutability": "view",
      "type": "function",
      "constant": true
    },
    {
      "inputs": [
        {
          "internalType": "uint256",
          "name": "_tokenId",
          "type": "uint256"
        }
      ],
      "name": "exists",
      "outputs": [
        {
          "internalType": "bool",
          "name": "",
          "type": "bool"
        }
      ],
      "stateMutability": "view",
      "type": "function",
      "constant": true
    },
    {
      "inputs": [
        {
          "internalType": "uint256",
          "name": "_tokenId",
          "type": "uint256"
        }
      ],
      "name": "getApproved",
      "outputs": [
        {
          "internalType": "address",
          "name": "",
          "type": "address"
        }
      ],
      "stateMutability": "view",
      "type": "function",
      "constant": true
    },
    {
      "inputs": [
        {
          "internalType": "address",
          "name": "_owner",
          "type": "address"
        },
        {
          "internalType": "address",
          "name": "_operator",
          "type": "address"
        }
      ],
      "name": "isApprovedForAll",
      "outputs": [
        {
          "internalType": "bool",
          "name": "",
          "type": "bool"
        }
      ],
      "stateMutability": "view",
      "type": "function",
      "constant": true
    },
    {
      "inputs": [],
      "name": "name",
      "outputs": [
        {
          "internalType": "string",
          "name": "",
          "type": "string"
        }
      ],
      "stateMutability": "view",
      "type": "function",
      "constant": true
    },
    {
      "inputs": [
        {
          "internalType": "uint256",
          "name": "_tokenId",
          "type": "uint256"
        }
      ],
      "name": "ownerOf",
      "outputs": [
        {
          "internalType": "address",
          "name": "",
          "type": "address"
        }
      ],
      "stateMutability": "view",
      "type": "function",
      "constant": true
    },
    {
      "inputs": [
        {
          "internalType": "address",
          "name": "_from",
          "type": "address"
        },
        {
          "internalType": "address",
          "name": "_to",
          "type": "address"
        },
        {
          "internalType": "uint256",
          "name": "_tokenId",
          "type": "uint256"
        }
      ],
      "name": "safeTransferFrom",
      "outputs": [],
      "stateMutability": "nonpayable",
      "type": "function"
    },
    {
      "inputs": [
        {
          "internalType": "address",
          "name": "_from",
          "type": "address"
        },
        {
          "internalType": "address",
          "name": "_to",
          "type": "address"
        },
        {
          "internalType": "uint256",
          "name": "_tokenId",
          "type": "uint256"
        },
        {
          "internalType": "bytes",
          "name": "_data",
          "type": "bytes"
        }
      ],
      "name": "safeTransferFrom",
      "outputs": [],
      "stateMutability": "nonpayable",
      "type": "function"
    },
    {
      "inputs": [
        {
          "internalType": "address",
          "name": "_to",
          "type": "address"
        },
        {
          "internalType": "bool",
          "name": "_approved",
          "type": "bool"
        }
      ],
      "name": "setApprovalForAll",
      "outputs": [],
      "stateMutability": "nonpayable",
      "type": "function"
    },
    {
      "inputs": [],
      "name": "symbol",
      "outputs": [
        {
          "internalType": "string",
          "name": "",
          "type": "string"
        }
      ],
      "stateMutability": "view",
      "type": "function",
      "constant": true
    },
    {
      "inputs": [
        {
          "internalType": "uint256",
          "name": "_index",
          "type": "uint256"
        }
      ],
      "name": "tokenByIndex",
      "outputs": [
        {
          "internalType": "uint256",
          "name": "",
          "type": "uint256"
        }
      ],
      "stateMutability": "view",
      "type": "function",
      "constant": true
    },
    {
      "inputs": [
        {
          "internalType": "address",
          "name": "_owner",
          "type": "address"
        },
        {
          "internalType": "uint256",
          "name": "_index",
          "type": "uint256"
        }
      ],
      "name": "tokenOfOwnerByIndex",
      "outputs": [
        {
          "internalType": "uint256",
          "name": "",
          "type": "uint256"
        }
      ],
      "stateMutability": "view",
      "type": "function",
      "constant": true
    },
    {
      "inputs": [
        {
          "internalType": "uint256",
          "name": "_tokenId",
          "type": "uint256"
        }
      ],
      "name": "tokenURI",
      "outputs": [
        {
          "internalType": "string",
          "name": "",
          "type": "string"
        }
      ],
      "stateMutability": "view",
      "type": "function",
      "constant": true
    },
    {
      "inputs": [],
      "name": "totalSupply",
      "outputs": [
        {
          "internalType": "uint256",
          "name": "",
          "type": "uint256"
        }
      ],
      "stateMutability": "view",
      "type": "function",
      "constant": true
    },
    {
      "inputs": [
        {
          "internalType": "address",
          "name": "_from",
          "type": "address"
        },
        {
          "internalType": "address",
          "name": "_to",
          "type": "address"
        },
        {
          "internalType": "uint256",
          "name": "_tokenId",
          "type": "uint256"
        }
      ],
      "name": "transferFrom",
      "outputs": [],
      "stateMutability": "nonpayable",
      "type": "function"
    },
    {
      "inputs": [
        {
          "internalType": "uint256",
          "name": "_tokenId",
          "type": "uint256"
        },
        {
          "internalType": "string",
          "name": "_uri",
          "type": "string"
        }
      ],
      "name": "registerDeed",
      "outputs": [],
      "stateMutability": "nonpayable",
      "type": "function"
    },
    {
      "inputs": [],
      "name": "getTotalNFTCount",
      "outputs": [
        {
          "internalType": "uint256",
          "name": "",
          "type": "uint256"
        }
      ],
      "stateMutability": "view",
      "type": "function",
      "constant": true
    },
    {
      "inputs": [
        {
          "internalType": "uint256",
          "name": "_tokenId",
          "type": "uint256"
        },
        {
          "internalType": "string",
          "name": "_uri",
          "type": "string"
        }
      ],
      "name": "addDeedMetadata",
      "outputs": [
        {
          "internalType": "bool",
          "name": "",
          "type": "bool"
        }
      ],
      "stateMutability": "nonpayable",
      "type": "function"
    }
  ],
  "bytecode": "0x60806040523480156200001157600080fd5b506040516200256738038062002567833981810160405281019062000037919062000197565b818181600490805190602001906200005192919062000075565b5080600590805190602001906200006a92919062000075565b50505050506200033b565b8280546200008390620002a7565b90600052602060002090601f016020900481019282620000a75760008555620000f3565b82601f10620000c257805160ff1916838001178555620000f3565b82800160010185558215620000f3579182015b82811115620000f2578251825591602001919060010190620000d5565b5b50905062000102919062000106565b5090565b5b808211156200012157600081600090555060010162000107565b5090565b60006200013c62000136846200023e565b6200020a565b9050828152602081018484840111156200015557600080fd5b6200016284828562000271565b509392505050565b600082601f8301126200017c57600080fd5b81516200018e84826020860162000125565b91505092915050565b60008060408385031215620001ab57600080fd5b600083015167ffffffffffffffff811115620001c657600080fd5b620001d4858286016200016a565b925050602083015167ffffffffffffffff811115620001f257600080fd5b62000200858286016200016a565b9150509250929050565b6000604051905081810181811067ffffffffffffffff821117156200023457620002336200030c565b5b8060405250919050565b600067ffffffffffffffff8211156200025c576200025b6200030c565b5b601f19601f8301169050602081019050919050565b60005b838110156200029157808201518184015260208101905062000274565b83811115620002a1576000848401525b50505050565b60006002820490506001821680620002c057607f821691505b60208210811415620002d757620002d6620002dd565b5b50919050565b7f4e487b7100000000000000000000000000000000000000000000000000000000600052602260045260246000fd5b7f4e487b7100000000000000000000000000000000000000000000000000000000600052604160045260246000fd5b61221c806200034b6000396000f3fe608060405234801561001057600080fd5b50600436106101215760003560e01c80636352211e116100ad578063bc50c9c111610071578063bc50c9c11461032c578063c87b56dd1461034a578063da5560331461037a578063e985e9c5146103aa578063f72439dd146103da57610121565b80636352211e1461027657806370a08231146102a657806395d89b41146102d6578063a22cb465146102f4578063b88d4fde1461031057610121565b806323b872dd116100f457806323b872dd146101ae5780632f745c59146101ca57806342842e0e146101fa5780634f558e79146102165780634f6ccce71461024657610121565b806306fdde0314610126578063081812fc14610144578063095ea7b31461017457806318160ddd14610190575b600080fd5b61012e6103f6565b60405161013b9190611e74565b60405180910390f35b61015e60048036038101906101599190611cbb565b610488565b60405161016b9190611dd7565b60405180910390f35b61018e60048036038101906101899190611c56565b6104c5565b005b610198610687565b6040516101a59190611e96565b60405180910390f35b6101c860048036038101906101c39190611b50565b610694565b005b6101e460048036038101906101df9190611c56565b6107a5565b6040516101f19190611e96565b60405180910390f35b610214600480360381019061020f9190611b50565b610845565b005b610230600480360381019061022b9190611cbb565b61087a565b60405161023d9190611e59565b60405180910390f35b610260600480360381019061025b9190611cbb565b6108eb565b60405161026d9190611e96565b60405180910390f35b610290600480360381019061028b9190611cbb565b61094c565b60405161029d9190611dd7565b60405180910390f35b6102c060048036038101906102bb9190611aeb565b6109c7565b6040516102cd9190611e96565b60405180910390f35b6102de610a49565b6040516102eb9190611e74565b60405180910390f35b61030e60048036038101906103099190611c1a565b610adb565b005b61032a60048036038101906103259190611b9f565b610c11565b005b610334610c4c565b6040516103419190611e96565b60405180910390f35b610364600480360381019061035f9190611cbb565b610c5b565b6040516103719190611e74565b60405180910390f35b610394600480360381019061038f9190611ce4565b610d12565b6040516103a19190611e59565b60405180910390f35b6103c460048036038101906103bf9190611b14565b610d28565b6040516103d19190611e59565b60405180910390f35b6103f460048036038101906103ef9190611ce4565b610dbc565b005b606060048054610405906120ba565b80601f0160208091040260200160405190810160405280929190818152602001828054610431906120ba565b801561047e5780601f106104535761010080835404028352916020019161047e565b820191906000526020600020905b81548152906001019060200180831161046157829003601f168201915b5050505050905090565b60006001600083815260200190815260200160002060009054906101000a900473ffffffffffffffffffffffffffffffffffffffff169050919050565b60006104d08261094c565b90508073ffffffffffffffffffffffffffffffffffffffff168373ffffffffffffffffffffffffffffffffffffffff16141561050b57600080fd5b8073ffffffffffffffffffffffffffffffffffffffff163373ffffffffffffffffffffffffffffffffffffffff16148061054b575061054a8133610d28565b5b61055457600080fd5b600073ffffffffffffffffffffffffffffffffffffffff1661057583610488565b73ffffffffffffffffffffffffffffffffffffffff161415806105c55750600073ffffffffffffffffffffffffffffffffffffffff168373ffffffffffffffffffffffffffffffffffffffff1614155b1561068257826001600084815260200190815260200160002060006101000a81548173ffffffffffffffffffffffffffffffffffffffff021916908373ffffffffffffffffffffffffffffffffffffffff1602179055508273ffffffffffffffffffffffffffffffffffffffff168173ffffffffffffffffffffffffffffffffffffffff167f8c5be1e5ebec7d5bd14f71427d1e84f3dd0314c0f7b2291e5b200ac8c7c3b925846040516106799190611e96565b60405180910390a35b505050565b6000600880549050905090565b8061069f3382610e0e565b6106a857600080fd5b600073ffffffffffffffffffffffffffffffffffffffff168473ffffffffffffffffffffffffffffffffffffffff1614156106e257600080fd5b600073ffffffffffffffffffffffffffffffffffffffff168373ffffffffffffffffffffffffffffffffffffffff16141561071c57600080fd5b6107268483610ea3565b6107308483611008565b61073a83836112c7565b8273ffffffffffffffffffffffffffffffffffffffff168473ffffffffffffffffffffffffffffffffffffffff167fddf252ad1be2c89b69c2b068fc378daa952ba7f163c4a11628f55a4df523b3ef846040516107979190611e96565b60405180910390a350505050565b60006107b0836109c7565b82106107bb57600080fd5b600660008473ffffffffffffffffffffffffffffffffffffffff1673ffffffffffffffffffffffffffffffffffffffff1681526020019081526020016000208281548110610832577f4e487b7100000000000000000000000000000000000000000000000000000000600052603260045260246000fd5b9060005260206000200154905092915050565b806108503382610e0e565b61085957600080fd5b61087484848460405180602001604052806000815250610c11565b50505050565b60008060008084815260200190815260200160002060009054906101000a900473ffffffffffffffffffffffffffffffffffffffff169050600073ffffffffffffffffffffffffffffffffffffffff168173ffffffffffffffffffffffffffffffffffffffff161415915050919050565b60006108f5610687565b821061090057600080fd5b6008828154811061093a577f4e487b7100000000000000000000000000000000000000000000000000000000600052603260045260246000fd5b90600052602060002001549050919050565b60008060008084815260200190815260200160002060009054906101000a900473ffffffffffffffffffffffffffffffffffffffff169050600073ffffffffffffffffffffffffffffffffffffffff168173ffffffffffffffffffffffffffffffffffffffff1614156109be57600080fd5b80915050919050565b60008073ffffffffffffffffffffffffffffffffffffffff168273ffffffffffffffffffffffffffffffffffffffff161415610a0257600080fd5b600260008373ffffffffffffffffffffffffffffffffffffffff1673ffffffffffffffffffffffffffffffffffffffff168152602001908152602001600020549050919050565b606060058054610a58906120ba565b80601f0160208091040260200160405190810160405280929190818152602001828054610a84906120ba565b8015610ad15780601f10610aa657610100808354040283529160200191610ad1565b820191906000526020600020905b815481529060010190602001808311610ab457829003601f168201915b5050505050905090565b3373ffffffffffffffffffffffffffffffffffffffff168273ffffffffffffffffffffffffffffffffffffffff161415610b1457600080fd5b80600360003373ffffffffffffffffffffffffffffffffffffffff1673ffffffffffffffffffffffffffffffffffffffff16815260200190815260200160002060008473ffffffffffffffffffffffffffffffffffffffff1673ffffffffffffffffffffffffffffffffffffffff16815260200190815260200160002060006101000a81548160ff0219169083151502179055508173ffffffffffffffffffffffffffffffffffffffff163373ffffffffffffffffffffffffffffffffffffffff167f17307eab39ab6107e8899845ad3d59bd9653f200f220920489ca2b5937696c3183604051610c059190611e59565b60405180910390a35050565b81610c1c3382610e0e565b610c2557600080fd5b610c30858585610694565b610c3c8585858561139b565b610c4557600080fd5b5050505050565b6000610c56610687565b905090565b6060610c668261087a565b610c6f57600080fd5b600a60008381526020019081526020016000208054610c8d906120ba565b80601f0160208091040260200160405190810160405280929190818152602001828054610cb9906120ba565b8015610d065780601f10610cdb57610100808354040283529160200191610d06565b820191906000526020600020905b815481529060010190602001808311610ce957829003601f168201915b50505050509050919050565b6000610d1e83836114b0565b6001905092915050565b6000600360008473ffffffffffffffffffffffffffffffffffffffff1673ffffffffffffffffffffffffffffffffffffffff16815260200190815260200160002060008373ffffffffffffffffffffffffffffffffffffffff1673ffffffffffffffffffffffffffffffffffffffff16815260200190815260200160002060009054906101000a900460ff16905092915050565b610dc633836114ee565b610dd08282610d12565b507f32cc5b866d6a5990a7f987020b639157969cb963b9beb2cdf41df22ab152df353383604051610e02929190611df2565b60405180910390a15050565b600080610e1a8361094c565b90508073ffffffffffffffffffffffffffffffffffffffff168473ffffffffffffffffffffffffffffffffffffffff161480610e8957508373ffffffffffffffffffffffffffffffffffffffff16610e7184610488565b73ffffffffffffffffffffffffffffffffffffffff16145b80610e9a5750610e998185610d28565b5b91505092915050565b8173ffffffffffffffffffffffffffffffffffffffff16610ec38261094c565b73ffffffffffffffffffffffffffffffffffffffff1614610ee357600080fd5b600073ffffffffffffffffffffffffffffffffffffffff166001600083815260200190815260200160002060009054906101000a900473ffffffffffffffffffffffffffffffffffffffff1673ffffffffffffffffffffffffffffffffffffffff16146110045760006001600083815260200190815260200160002060006101000a81548173ffffffffffffffffffffffffffffffffffffffff021916908373ffffffffffffffffffffffffffffffffffffffff160217905550600073ffffffffffffffffffffffffffffffffffffffff168273ffffffffffffffffffffffffffffffffffffffff167f8c5be1e5ebec7d5bd14f71427d1e84f3dd0314c0f7b2291e5b200ac8c7c3b92583604051610ffb9190611e96565b60405180910390a35b5050565b6110128282611542565b6000600760008381526020019081526020016000205490506000600660008573ffffffffffffffffffffffffffffffffffffffff1673ffffffffffffffffffffffffffffffffffffffff1681526020019081526020016000208054905090506000600660008673ffffffffffffffffffffffffffffffffffffffff1673ffffffffffffffffffffffffffffffffffffffff16815260200190815260200160002082815481106110ea577f4e487b7100000000000000000000000000000000000000000000000000000000600052603260045260246000fd5b9060005260206000200154905080600660008773ffffffffffffffffffffffffffffffffffffffff1673ffffffffffffffffffffffffffffffffffffffff168152602001908152602001600020848154811061116f577f4e487b7100000000000000000000000000000000000000000000000000000000600052603260045260246000fd5b90600052602060002001819055506000600660008773ffffffffffffffffffffffffffffffffffffffff1673ffffffffffffffffffffffffffffffffffffffff16815260200190815260200160002083815481106111f6577f4e487b7100000000000000000000000000000000000000000000000000000000600052603260045260246000fd5b9060005260206000200181905550600660008673ffffffffffffffffffffffffffffffffffffffff1673ffffffffffffffffffffffffffffffffffffffff168152602001908152602001600020805480611279577f4e487b7100000000000000000000000000000000000000000000000000000000600052603160045260246000fd5b60019003818190600052602060002001600090559055600060076000868152602001908152602001600020819055508260076000838152602001908152602001600020819055505050505050565b6112d1828261166e565b6000600660008473ffffffffffffffffffffffffffffffffffffffff1673ffffffffffffffffffffffffffffffffffffffff168152602001908152602001600020805490509050600660008473ffffffffffffffffffffffffffffffffffffffff1673ffffffffffffffffffffffffffffffffffffffff168152602001908152602001600020829080600181540180825580915050600190039060005260206000200160009091909190915055806007600084815260200190815260200160002081905550505050565b60006113bc8473ffffffffffffffffffffffffffffffffffffffff166117c4565b6113c957600190506114a8565b60008473ffffffffffffffffffffffffffffffffffffffff1663f0b9e5ba8786866040518463ffffffff1660e01b815260040161140893929190611e1b565b602060405180830381600087803b15801561142257600080fd5b505af1158015611436573d6000803e3d6000fd5b505050506040513d601f19601f8201168201806040525081019061145a9190611c92565b905063f0b9e5ba60e01b7bffffffffffffffffffffffffffffffffffffffffffffffffffffffff1916817bffffffffffffffffffffffffffffffffffffffffffffffffffffffff1916149150505b949350505050565b6114b98261087a565b6114c257600080fd5b80600a600084815260200190815260200160002090805190602001906114e9929190611924565b505050565b6114f882826117d7565b600880549050600960008381526020019081526020016000208190555060088190806001815401808255809150506001900390600052602060002001600090919091909150555050565b8173ffffffffffffffffffffffffffffffffffffffff166115628261094c565b73ffffffffffffffffffffffffffffffffffffffff161461158257600080fd5b6115d56001600260008573ffffffffffffffffffffffffffffffffffffffff1673ffffffffffffffffffffffffffffffffffffffff1681526020019081526020016000205461188590919063ffffffff16565b600260008473ffffffffffffffffffffffffffffffffffffffff1673ffffffffffffffffffffffffffffffffffffffff16815260200190815260200160002081905550600080600083815260200190815260200160002060006101000a81548173ffffffffffffffffffffffffffffffffffffffff021916908373ffffffffffffffffffffffffffffffffffffffff1602179055505050565b600073ffffffffffffffffffffffffffffffffffffffff1660008083815260200190815260200160002060009054906101000a900473ffffffffffffffffffffffffffffffffffffffff1673ffffffffffffffffffffffffffffffffffffffff16146116d957600080fd5b8160008083815260200190815260200160002060006101000a81548173ffffffffffffffffffffffffffffffffffffffff021916908373ffffffffffffffffffffffffffffffffffffffff16021790555061177d6001600260008573ffffffffffffffffffffffffffffffffffffffff1673ffffffffffffffffffffffffffffffffffffffff168152602001908152602001600020546118d290919063ffffffff16565b600260008473ffffffffffffffffffffffffffffffffffffffff1673ffffffffffffffffffffffffffffffffffffffff168152602001908152602001600020819055505050565b600080823b905060008111915050919050565b600073ffffffffffffffffffffffffffffffffffffffff168273ffffffffffffffffffffffffffffffffffffffff16141561181157600080fd5b61181b82826112c7565b8173ffffffffffffffffffffffffffffffffffffffff16600073ffffffffffffffffffffffffffffffffffffffff167fddf252ad1be2c89b69c2b068fc378daa952ba7f163c4a11628f55a4df523b3ef836040516118799190611e96565b60405180910390a35050565b6000828211156118be577f4e487b7100000000000000000000000000000000000000000000000000000000600052600160045260246000fd5b81836118ca9190611fd0565b905092915050565b60008082846118e19190611f7a565b90508381101561191a577f4e487b7100000000000000000000000000000000000000000000000000000000600052600160045260246000fd5b8091505092915050565b828054611930906120ba565b90600052602060002090601f0160209004810192826119525760008555611999565b82601f1061196b57805160ff1916838001178555611999565b82800160010185558215611999579182015b8281111561199857825182559160200191906001019061197d565b5b5090506119a691906119aa565b5090565b5b808211156119c35760008160009055506001016119ab565b5090565b60006119da6119d584611ee2565b611eb1565b9050828152602081018484840111156119f257600080fd5b6119fd848285612078565b509392505050565b6000611a18611a1384611f12565b611eb1565b905082815260208101848484011115611a3057600080fd5b611a3b848285612078565b509392505050565b600081359050611a528161218a565b92915050565b600081359050611a67816121a1565b92915050565b600081519050611a7c816121b8565b92915050565b600082601f830112611a9357600080fd5b8135611aa38482602086016119c7565b91505092915050565b600082601f830112611abd57600080fd5b8135611acd848260208601611a05565b91505092915050565b600081359050611ae5816121cf565b92915050565b600060208284031215611afd57600080fd5b6000611b0b84828501611a43565b91505092915050565b60008060408385031215611b2757600080fd5b6000611b3585828601611a43565b9250506020611b4685828601611a43565b9150509250929050565b600080600060608486031215611b6557600080fd5b6000611b7386828701611a43565b9350506020611b8486828701611a43565b9250506040611b9586828701611ad6565b9150509250925092565b60008060008060808587031215611bb557600080fd5b6000611bc387828801611a43565b9450506020611bd487828801611a43565b9350506040611be587828801611ad6565b925050606085013567ffffffffffffffff811115611c0257600080fd5b611c0e87828801611a82565b91505092959194509250565b60008060408385031215611c2d57600080fd5b6000611c3b85828601611a43565b9250506020611c4c85828601611a58565b9150509250929050565b60008060408385031215611c6957600080fd5b6000611c7785828601611a43565b9250506020611c8885828601611ad6565b9150509250929050565b600060208284031215611ca457600080fd5b6000611cb284828501611a6d565b91505092915050565b600060208284031215611ccd57600080fd5b6000611cdb84828501611ad6565b91505092915050565b60008060408385031215611cf757600080fd5b6000611d0585828601611ad6565b925050602083013567ffffffffffffffff811115611d2257600080fd5b611d2e85828601611aac565b9150509250929050565b611d4181612004565b82525050565b611d5081612016565b82525050565b6000611d6182611f42565b611d6b8185611f58565b9350611d7b818560208601612087565b611d8481612179565b840191505092915050565b6000611d9a82611f4d565b611da48185611f69565b9350611db4818560208601612087565b611dbd81612179565b840191505092915050565b611dd18161206e565b82525050565b6000602082019050611dec6000830184611d38565b92915050565b6000604082019050611e076000830185611d38565b611e146020830184611dc8565b9392505050565b6000606082019050611e306000830186611d38565b611e3d6020830185611dc8565b8181036040830152611e4f8184611d56565b9050949350505050565b6000602082019050611e6e6000830184611d47565b92915050565b60006020820190508181036000830152611e8e8184611d8f565b905092915050565b6000602082019050611eab6000830184611dc8565b92915050565b6000604051905081810181811067ffffffffffffffff82111715611ed857611ed761214a565b5b8060405250919050565b600067ffffffffffffffff821115611efd57611efc61214a565b5b601f19601f8301169050602081019050919050565b600067ffffffffffffffff821115611f2d57611f2c61214a565b5b601f19601f8301169050602081019050919050565b600081519050919050565b600081519050919050565b600082825260208201905092915050565b600082825260208201905092915050565b6000611f858261206e565b9150611f908361206e565b9250827fffffffffffffffffffffffffffffffffffffffffffffffffffffffffffffffff03821115611fc557611fc46120ec565b5b828201905092915050565b6000611fdb8261206e565b9150611fe68361206e565b925082821015611ff957611ff86120ec565b5b828203905092915050565b600061200f8261204e565b9050919050565b60008115159050919050565b60007fffffffff0000000000000000000000000000000000000000000000000000000082169050919050565b600073ffffffffffffffffffffffffffffffffffffffff82169050919050565b6000819050919050565b82818337600083830152505050565b60005b838110156120a557808201518184015260208101905061208a565b838111156120b4576000848401525b50505050565b600060028204905060018216806120d257607f821691505b602082108114156120e6576120e561211b565b5b50919050565b7f4e487b7100000000000000000000000000000000000000000000000000000000600052601160045260246000fd5b7f4e487b7100000000000000000000000000000000000000000000000000000000600052602260045260246000fd5b7f4e487b7100000000000000000000000000000000000000000000000000000000600052604160045260246000fd5b6000601f19601f8301169050919050565b61219381612004565b811461219e57600080fd5b50565b6121aa81612016565b81146121b557600080fd5b50565b6121c181612022565b81146121cc57600080fd5b50565b6121d88161206e565b81146121e357600080fd5b5056fea2646970667358221220d224d9b0400144bf71bc73dd3158ea881b67957b564d5f3769becc66e498e66f64736f6c63430008000033",
  "immutableReferences": {},
  "source": "// SPDX-License-Identifier: MIT\n\npragma solidity >=0.8.0;\nimport \"./ERC721/ERC721Token.sol\";\n\n/**\n * @title Repository of ERC721 Deeds\n * This contract contains the list of deeds registered by users.\n * This is a demo to show how tokens (deeds) can be minted and added \n * to the repository.\n */\ncontract DeedRepository is ERC721Token {\n\n    /**\n    * @dev Created a DeedRepository with a name and symbol\n    * @param _name string represents the name of the repository\n    * @param _symbol string represents the symbol of the repository\n    */\n\n    constructor(string memory _name, string memory _symbol) \n        ERC721Token(_name, _symbol) {}\n    \n    /**\n    * @dev Public function to register a new deed\n    * @dev Call the ERC721Token minter\n    * @param _tokenId uint256 represents a specific deed\n    * @param _uri string containing metadata/uri\n    */\n    function registerDeed(uint256 _tokenId, string memory _uri) public {\n        _mint(msg.sender, _tokenId);\n        addDeedMetadata(_tokenId, _uri);\n        emit DeedRegistered(msg.sender, _tokenId);\n    }\n\n    function getTotalNFTCount () public view returns (uint) {\n        return totalSupply();\n    }\n\n    /**\n    * , string memory _title, string memory _creator, string memory _name _title, _creator, _name\n    * @dev Public function to add metadata to a deed\n    * @param _tokenId represents a specific deed\n    * @param _uri text which describes the characteristics of a given deed\n    * @return whether the deed metadata was added to the repository\n    */\n    function addDeedMetadata(uint256 _tokenId, string memory _uri) public returns(bool){\n        _setTokenURI(_tokenId, _uri);\n        return true;\n    }\n\n    /**\n    * @dev Event is triggered if deed/token is registered\n    * @param _by address of the registrar\n    * @param _tokenId uint256 represents a specific deed\n    */\n    event DeedRegistered(address _by, uint256 _tokenId);\n}\n",
  "sourcePath": "/Users/ramtin/Desktop/reGal/client/contracts/DeedRepository.sol",
  "compiler": {
    "name": "solc",
    "version": "0.8.0+commit.c7dfd78e.Emscripten.clang"
  },
  "schemaVersion": "3.4.1",
  "updatedAt": "2021-05-25T23:06:53.908Z",
  "networkType": "ethereum",
  "devdoc": {
    "events": {
      "DeedRegistered(address,uint256)": {
        "details": "Event is triggered if deed/token is registered",
        "params": {
          "_by": "address of the registrar",
          "_tokenId": "uint256 represents a specific deed"
        }
      }
    },
    "kind": "dev",
    "methods": {
      "addDeedMetadata(uint256,string)": {
        "details": "Public function to add metadata to a deed",
        "params": {
          "_tokenId": "represents a specific deed",
          "_uri": "text which describes the characteristics of a given deed"
        },
        "returns": {
          "_0": "whether the deed metadata was added to the repository"
        }
      },
      "approve(address,uint256)": {
        "details": "Approves another address to transfer the given token IDThe zero address indicates there is no approved address.There can only be one approved address per token at a given time.Can only be called by the token owner or an approved operator.",
        "params": {
          "_to": "address to be approved for the given token ID",
          "_tokenId": "uint256 ID of the token to be approved"
        }
      },
      "balanceOf(address)": {
        "details": "Gets the balance of the specified address",
        "params": {
          "_owner": "address to query the balance of"
        },
        "returns": {
          "_0": "uint256 representing the amount owned by the passed address"
        }
      },
      "constructor": {
        "details": "Created a DeedRepository with a name and symbol",
        "params": {
          "_name": "string represents the name of the repository",
          "_symbol": "string represents the symbol of the repository"
        }
      },
      "exists(uint256)": {
        "details": "Returns whether the specified token exists",
        "params": {
          "_tokenId": "uint256 ID of the token to query the existance of"
        },
        "returns": {
          "_0": "whether the token exists"
        }
      },
      "getApproved(uint256)": {
        "details": "Gets the approved address for a token ID, or zero if no address set",
        "params": {
          "_tokenId": "uint256 ID of the token to query the approval of"
        },
        "returns": {
          "_0": "address currently approved for a the given token ID"
        }
      },
      "isApprovedForAll(address,address)": {
        "details": "Tells whether an operator is approved by a given owner",
        "params": {
          "_operator": "operator address which you want to query the approval of",
          "_owner": "owner address which you want to query the approval of"
        },
        "returns": {
          "_0": "bool whether the given operator is approved by the given owner"
        }
      },
      "name()": {
        "details": "Gets the token name",
        "returns": {
          "_0": "string representing the token name"
        }
      },
      "ownerOf(uint256)": {
        "details": "Gets the owner of the specified token ID",
        "params": {
          "_tokenId": "uint256 ID of the token to query the owner of"
        },
        "returns": {
          "_0": "owner address currently marked as the owner of the given token ID"
        }
      },
      "registerDeed(uint256,string)": {
        "details": "Public function to register a new deedCall the ERC721Token minter",
        "params": {
          "_tokenId": "uint256 represents a specific deed",
          "_uri": "string containing metadata/uri"
        }
      },
      "safeTransferFrom(address,address,uint256)": {
        "details": "Safely transfers the ownership of a given token ID to another addressIf the target address is a contract, it must implement `onERC721Received`,  which is called upon a safe transfer, and return the magic value  `bytes4(keccak256(\"onERC721Received(address,uint256,bytes)\"))`; otherwise,  the transfer is reverted.Requires the msg sender to be the owner, approved, or operator",
        "params": {
          "_from": "current owner of the token",
          "_to": "address to receive the ownership of the given token ID",
          "_tokenId": "uint256 ID of the token to be transferred"
        }
      },
      "safeTransferFrom(address,address,uint256,bytes)": {
        "details": "Safely transfers the ownership of a given token ID to another addressIf the target address is a contract, it must implement `onERC721Received`,  which is called upon a safe transfer, and return the magic value  `bytes4(keccak256(\"onERC721Received(address,uint256,bytes)\"))`; otherwise,  the transfer is reverted.Requires the msg sender to be the owner, approved, or operator",
        "params": {
          "_data": "bytes data to send along with a safe transfer check",
          "_from": "current owner of the token",
          "_to": "address to receive the ownership of the given token ID",
          "_tokenId": "uint256 ID of the token to be transferred"
        }
      },
      "setApprovalForAll(address,bool)": {
        "details": "Sets or unsets the approval of a given operatorAn operator is allowed to transfer all tokens of the sender on their behalf",
        "params": {
          "_approved": "representing the status of the approval to be set",
          "_to": "operator address to set the approval"
        }
      },
      "symbol()": {
        "details": "Gets the token symbol",
        "returns": {
          "_0": "string representing the token symbol"
        }
      },
      "tokenByIndex(uint256)": {
        "details": "Gets the token ID at a given index of all the tokens in this contractReverts if the index is greater or equal to the total number of tokens",
        "params": {
          "_index": "uint256 representing the index to be accessed of the tokens list"
        },
        "returns": {
          "_0": "uint256 token ID at the given index of the tokens list"
        }
      },
      "tokenOfOwnerByIndex(address,uint256)": {
        "details": "Gets the token ID at a given index of the tokens list of the requested owner",
        "params": {
          "_index": "uint256 representing the index to be accessed of the requested tokens list",
          "_owner": "address owning the tokens list to be accessed"
        },
        "returns": {
          "_0": "uint256 token ID at the given index of the tokens list owned by the requested address"
        }
      },
      "tokenURI(uint256)": {
        "details": "Returns an URI for a given token IDThrows if the token ID does not exist. May return an empty string.",
        "params": {
          "_tokenId": "uint256 ID of the token to query"
        }
      },
      "totalSupply()": {
        "details": "Gets the total amount of tokens stored by the contract",
        "returns": {
          "_0": "uint256 representing the total amount of tokens"
        }
      },
      "transferFrom(address,address,uint256)": {
        "details": "Transfers the ownership of a given token ID to another addressUsage of this method is discouraged, use `safeTransferFrom` whenever possibleRequires the msg sender to be the owner, approved, or operator",
        "params": {
          "_from": "current owner of the token",
          "_to": "address to receive the ownership of the given token ID",
          "_tokenId": "uint256 ID of the token to be transferred"
        }
      }
    },
    "title": "Repository of ERC721 Deeds This contract contains the list of deeds registered by users. This is a demo to show how tokens (deeds) can be minted and added  to the repository.",
    "version": 1
  },
  "userdoc": {
    "kind": "user",
    "methods": {
      "addDeedMetadata(uint256,string)": {
        "notice": ", string memory _title, string memory _creator, string memory _name _title, _creator, _name"
      }
    },
    "version": 1
  }
}