{
  "contractName": "RegalAuction",
  "abi": [
    {
      "inputs": [],
      "stateMutability": "payable",
      "type": "constructor",
      "payable": true
    },
    {
      "anonymous": false,
      "inputs": [
        {
          "indexed": true,
          "internalType": "address",
          "name": "owner",
          "type": "address"
        },
        {
          "indexed": true,
          "internalType": "address",
          "name": "approved",
          "type": "address"
        },
        {
          "indexed": true,
          "internalType": "uint256",
          "name": "tokenId",
          "type": "uint256"
        }
      ],
      "name": "Approval",
      "type": "event"
    },
    {
      "anonymous": false,
      "inputs": [
        {
          "indexed": true,
          "internalType": "address",
          "name": "owner",
          "type": "address"
        },
        {
          "indexed": true,
          "internalType": "address",
          "name": "operator",
          "type": "address"
        },
        {
          "indexed": false,
          "internalType": "bool",
          "name": "approved",
          "type": "bool"
        }
      ],
      "name": "ApprovalForAll",
      "type": "event"
    },
    {
      "anonymous": false,
      "inputs": [
        {
          "indexed": false,
          "internalType": "address",
          "name": "",
          "type": "address"
        },
        {
          "indexed": false,
          "internalType": "uint256",
          "name": "_id",
          "type": "uint256"
        }
      ],
      "name": "CollectibleCreated",
      "type": "event"
    },
    {
      "anonymous": false,
      "inputs": [
        {
          "indexed": false,
          "internalType": "address",
          "name": "bidder",
          "type": "address"
        },
        {
          "indexed": false,
          "internalType": "uint256",
          "name": "bid",
          "type": "uint256"
        },
        {
          "indexed": false,
          "internalType": "address",
          "name": "highestBidder",
          "type": "address"
        },
        {
          "indexed": false,
          "internalType": "uint256",
          "name": "highestBid",
          "type": "uint256"
        }
      ],
      "name": "LogBid",
      "type": "event"
    },
    {
      "anonymous": false,
      "inputs": [],
      "name": "LogEnded",
      "type": "event"
    },
    {
      "anonymous": false,
      "inputs": [
        {
          "indexed": false,
          "internalType": "address",
          "name": "withdrawer",
          "type": "address"
        },
        {
          "indexed": false,
          "internalType": "address",
          "name": "withdrawalAccount",
          "type": "address"
        },
        {
          "indexed": false,
          "internalType": "uint256",
          "name": "amount",
          "type": "uint256"
        }
      ],
      "name": "LogWithdrawal",
      "type": "event"
    },
    {
      "anonymous": false,
      "inputs": [
        {
          "indexed": true,
          "internalType": "address",
          "name": "from",
          "type": "address"
        },
        {
          "indexed": true,
          "internalType": "address",
          "name": "to",
          "type": "address"
        },
        {
          "indexed": true,
          "internalType": "uint256",
          "name": "tokenId",
          "type": "uint256"
        }
      ],
      "name": "Transfer",
      "type": "event"
    },
    {
      "inputs": [],
      "name": "_collectibleIds",
      "outputs": [
        {
          "internalType": "uint256",
          "name": "",
          "type": "uint256"
        }
      ],
      "stateMutability": "view",
      "type": "function",
      "constant": true
    },
    {
      "inputs": [
        {
          "internalType": "uint256",
          "name": "",
          "type": "uint256"
        }
      ],
      "name": "_regalCollectibles",
      "outputs": [
        {
          "internalType": "address payable",
          "name": "seller",
          "type": "address"
        },
        {
          "internalType": "uint256",
          "name": "minbid",
          "type": "uint256"
        },
        {
          "internalType": "string",
          "name": "tokenURI",
          "type": "string"
        },
        {
          "internalType": "bool",
          "name": "sale",
          "type": "bool"
        },
        {
          "internalType": "uint256",
          "name": "startTime",
          "type": "uint256"
        },
        {
          "internalType": "uint256",
          "name": "endTime",
          "type": "uint256"
        },
        {
          "internalType": "bool",
          "name": "minted",
          "type": "bool"
        }
      ],
      "stateMutability": "view",
      "type": "function",
      "constant": true
    },
    {
      "inputs": [],
      "name": "_regalIds",
      "outputs": [
        {
          "internalType": "uint256",
          "name": "",
          "type": "uint256"
        }
      ],
      "stateMutability": "view",
      "type": "function",
      "constant": true
    },
    {
      "inputs": [
        {
          "internalType": "address",
          "name": "to",
          "type": "address"
        },
        {
          "internalType": "uint256",
          "name": "tokenId",
          "type": "uint256"
        }
      ],
      "name": "approve",
      "outputs": [],
      "stateMutability": "nonpayable",
      "type": "function"
    },
    {
      "inputs": [
        {
          "internalType": "address",
          "name": "owner",
          "type": "address"
        }
      ],
      "name": "balanceOf",
      "outputs": [
        {
          "internalType": "uint256",
          "name": "",
          "type": "uint256"
        }
      ],
      "stateMutability": "view",
      "type": "function",
      "constant": true
    },
    {
      "inputs": [],
      "name": "baseURI",
      "outputs": [
        {
          "internalType": "string",
          "name": "",
          "type": "string"
        }
      ],
      "stateMutability": "view",
      "type": "function",
      "constant": true
    },
    {
      "inputs": [
        {
          "internalType": "uint256",
          "name": "",
          "type": "uint256"
        }
      ],
      "name": "bid",
      "outputs": [
        {
          "internalType": "uint256",
          "name": "currentHighestBid",
          "type": "uint256"
        },
        {
          "internalType": "address payable",
          "name": "highestBidder",
          "type": "address"
        }
      ],
      "stateMutability": "view",
      "type": "function",
      "constant": true
    },
    {
      "inputs": [
        {
          "internalType": "uint256",
          "name": "",
          "type": "uint256"
        },
        {
          "internalType": "address",
          "name": "",
          "type": "address"
        }
      ],
      "name": "fundsByBidder",
      "outputs": [
        {
          "internalType": "uint256",
          "name": "",
          "type": "uint256"
        }
      ],
      "stateMutability": "view",
      "type": "function",
      "constant": true
    },
    {
      "inputs": [
        {
          "internalType": "uint256",
          "name": "tokenId",
          "type": "uint256"
        }
      ],
      "name": "getApproved",
      "outputs": [
        {
          "internalType": "address",
          "name": "",
          "type": "address"
        }
      ],
      "stateMutability": "view",
      "type": "function",
      "constant": true
    },
    {
      "inputs": [
        {
          "internalType": "address",
          "name": "owner",
          "type": "address"
        },
        {
          "internalType": "address",
          "name": "operator",
          "type": "address"
        }
      ],
      "name": "isApprovedForAll",
      "outputs": [
        {
          "internalType": "bool",
          "name": "",
          "type": "bool"
        }
      ],
      "stateMutability": "view",
      "type": "function",
      "constant": true
    },
    {
      "inputs": [
        {
          "internalType": "uint256",
          "name": "",
          "type": "uint256"
        }
      ],
      "name": "minters",
      "outputs": [
        {
          "internalType": "address",
          "name": "",
          "type": "address"
        }
      ],
      "stateMutability": "view",
      "type": "function",
      "constant": true
    },
    {
      "inputs": [],
      "name": "name",
      "outputs": [
        {
          "internalType": "string",
          "name": "",
          "type": "string"
        }
      ],
      "stateMutability": "view",
      "type": "function",
      "constant": true
    },
    {
      "inputs": [],
      "name": "owner",
      "outputs": [
        {
          "internalType": "address",
          "name": "",
          "type": "address"
        }
      ],
      "stateMutability": "view",
      "type": "function",
      "constant": true
    },
    {
      "inputs": [
        {
          "internalType": "uint256",
          "name": "tokenId",
          "type": "uint256"
        }
      ],
      "name": "ownerOf",
      "outputs": [
        {
          "internalType": "address",
          "name": "",
          "type": "address"
        }
      ],
      "stateMutability": "view",
      "type": "function",
      "constant": true
    },
    {
      "inputs": [
        {
          "internalType": "address",
          "name": "from",
          "type": "address"
        },
        {
          "internalType": "address",
          "name": "to",
          "type": "address"
        },
        {
          "internalType": "uint256",
          "name": "tokenId",
          "type": "uint256"
        }
      ],
      "name": "safeTransferFrom",
      "outputs": [],
      "stateMutability": "nonpayable",
      "type": "function"
    },
    {
      "inputs": [
        {
          "internalType": "address",
          "name": "from",
          "type": "address"
        },
        {
          "internalType": "address",
          "name": "to",
          "type": "address"
        },
        {
          "internalType": "uint256",
          "name": "tokenId",
          "type": "uint256"
        },
        {
          "internalType": "bytes",
          "name": "_data",
          "type": "bytes"
        }
      ],
      "name": "safeTransferFrom",
      "outputs": [],
      "stateMutability": "nonpayable",
      "type": "function"
    },
    {
      "inputs": [
        {
          "internalType": "address",
          "name": "operator",
          "type": "address"
        },
        {
          "internalType": "bool",
          "name": "approved",
          "type": "bool"
        }
      ],
      "name": "setApprovalForAll",
      "outputs": [],
      "stateMutability": "nonpayable",
      "type": "function"
    },
    {
      "inputs": [
        {
          "internalType": "bytes4",
          "name": "interfaceId",
          "type": "bytes4"
        }
      ],
      "name": "supportsInterface",
      "outputs": [
        {
          "internalType": "bool",
          "name": "",
          "type": "bool"
        }
      ],
      "stateMutability": "view",
      "type": "function",
      "constant": true
    },
    {
      "inputs": [],
      "name": "symbol",
      "outputs": [
        {
          "internalType": "string",
          "name": "",
          "type": "string"
        }
      ],
      "stateMutability": "view",
      "type": "function",
      "constant": true
    },
    {
      "inputs": [
        {
          "internalType": "uint256",
          "name": "index",
          "type": "uint256"
        }
      ],
      "name": "tokenByIndex",
      "outputs": [
        {
          "internalType": "uint256",
          "name": "",
          "type": "uint256"
        }
      ],
      "stateMutability": "view",
      "type": "function",
      "constant": true
    },
    {
      "inputs": [
        {
          "internalType": "address",
          "name": "owner",
          "type": "address"
        },
        {
          "internalType": "uint256",
          "name": "index",
          "type": "uint256"
        }
      ],
      "name": "tokenOfOwnerByIndex",
      "outputs": [
        {
          "internalType": "uint256",
          "name": "",
          "type": "uint256"
        }
      ],
      "stateMutability": "view",
      "type": "function",
      "constant": true
    },
    {
      "inputs": [
        {
          "internalType": "uint256",
          "name": "tokenId",
          "type": "uint256"
        }
      ],
      "name": "tokenURI",
      "outputs": [
        {
          "internalType": "string",
          "name": "",
          "type": "string"
        }
      ],
      "stateMutability": "view",
      "type": "function",
      "constant": true
    },
    {
      "inputs": [],
      "name": "totalSupply",
      "outputs": [
        {
          "internalType": "uint256",
          "name": "",
          "type": "uint256"
        }
      ],
      "stateMutability": "view",
      "type": "function",
      "constant": true
    },
    {
      "inputs": [
        {
          "internalType": "address",
          "name": "from",
          "type": "address"
        },
        {
          "internalType": "address",
          "name": "to",
          "type": "address"
        },
        {
          "internalType": "uint256",
          "name": "tokenId",
          "type": "uint256"
        }
      ],
      "name": "transferFrom",
      "outputs": [],
      "stateMutability": "nonpayable",
      "type": "function"
    },
    {
      "inputs": [
        {
          "internalType": "string",
          "name": "_tokenURI",
          "type": "string"
        }
      ],
      "name": "createCollectible",
      "outputs": [],
      "stateMutability": "nonpayable",
      "type": "function"
    },
    {
      "inputs": [
        {
          "internalType": "uint256",
          "name": "_id",
          "type": "uint256"
        },
        {
          "internalType": "uint256",
          "name": "_minbid",
          "type": "uint256"
        },
        {
          "internalType": "uint256",
          "name": "_end",
          "type": "uint256"
        }
      ],
      "name": "startAuction",
      "outputs": [
        {
          "internalType": "bool",
          "name": "_success",
          "type": "bool"
        }
      ],
      "stateMutability": "nonpayable",
      "type": "function"
    },
    {
      "inputs": [
        {
          "internalType": "uint256",
          "name": "id",
          "type": "uint256"
        }
      ],
      "name": "placeBid",
      "outputs": [
        {
          "internalType": "bool",
          "name": "success",
          "type": "bool"
        }
      ],
      "stateMutability": "payable",
      "type": "function",
      "payable": true
    },
    {
      "inputs": [
        {
          "internalType": "uint256",
          "name": "_id",
          "type": "uint256"
        }
      ],
      "name": "endAuction",
      "outputs": [
        {
          "internalType": "bool",
          "name": "success",
          "type": "bool"
        }
      ],
      "stateMutability": "payable",
      "type": "function",
      "payable": true
    },
    {
      "inputs": [
        {
          "internalType": "uint256",
          "name": "id",
          "type": "uint256"
        }
      ],
      "name": "withdraw",
      "outputs": [
        {
          "internalType": "bool",
          "name": "success",
          "type": "bool"
        }
      ],
      "stateMutability": "payable",
      "type": "function",
      "payable": true
    },
    {
      "inputs": [
        {
          "internalType": "uint256",
          "name": "id",
          "type": "uint256"
        }
      ],
      "name": "getCollectible",
      "outputs": [
        {
          "internalType": "uint256",
          "name": "",
          "type": "uint256"
        },
        {
          "internalType": "uint256",
          "name": "",
          "type": "uint256"
        },
        {
          "internalType": "string",
          "name": "",
          "type": "string"
        },
        {
          "internalType": "uint256",
          "name": "",
          "type": "uint256"
        }
      ],
      "stateMutability": "view",
      "type": "function",
      "constant": true
    }
  ],
  "bytecode": "0x60806040526040518060400160405280600a81526020017f526567616c546f6b656e000000000000000000000000000000000000000000008152506040518060400160405280600381526020017f52474c0000000000000000000000000000000000000000000000000000000000815250620000886301ffc9a760e01b6200014b60201b60201c565b8160069080519060200190620000a092919062000254565b508060079080519060200190620000b992919062000254565b50620000d26380ac58cd60e01b6200014b60201b60201c565b620000ea635b5e139f60e01b6200014b60201b60201c565b6200010263780e9d6360e01b6200014b60201b60201c565b505033600b60006101000a81548173ffffffffffffffffffffffffffffffffffffffff021916908373ffffffffffffffffffffffffffffffffffffffff16021790555062000303565b63ffffffff60e01b817bffffffffffffffffffffffffffffffffffffffffffffffffffffffff19161415620001e8576040517f08c379a000000000000000000000000000000000000000000000000000000000815260040180806020018281038252601c8152602001807f4552433136353a20696e76616c696420696e746572666163652069640000000081525060200191505060405180910390fd5b6001600080837bffffffffffffffffffffffffffffffffffffffffffffffffffffffff19167bffffffffffffffffffffffffffffffffffffffffffffffffffffffff1916815260200190815260200160002060006101000a81548160ff02191690831515021790555050565b828054600181600116156101000203166002900490600052602060002090601f016020900481019282601f106200029757805160ff1916838001178555620002c8565b82800160010185558215620002c8579182015b82811115620002c7578251825591602001919060010190620002aa565b5b509050620002d79190620002db565b5090565b6200030091905b80821115620002fc576000816000905550600101620002e2565b5090565b90565b61592a80620003136000396000f3fe6080604052600436106101cd5760003560e01c80636c0360eb116100f75780639979ef4511610095578063b9a2de3a11610064578063b9a2de3a14610e7c578063c6c6f17314610ec2578063c87b56dd14610eed578063e985e9c514610fa1576101cd565b80639979ef4514610bb5578063a22cb46514610bfb578063a635d6c414610c58578063b88d4fde14610d6a576101cd565b80638623ec7b116100d15780638623ec7b146109ec5780638da5cb5b14610a6757806391e078bb14610abe57806395d89b4114610b25576101cd565b80636c0360eb1461082e57806370a08231146108be57806372d9967514610923576101cd565b8063278e5cd71161016f57806342842e0e1161013e57806342842e0e14610667578063454a2ab3146106e25780634f6ccce7146107645780636352211e146107b3576101cd565b8063278e5cd7146104bf5780632e1a7d4d146104ea5780632f745c591461053057806331f1f3c31461059f576101cd565b8063095ea7b3116101ab578063095ea7b31461034f57806318160ddd146103aa57806323b872dd146103d557806326fe306514610450576101cd565b806301ffc9a7146101d257806306fdde0314610244578063081812fc146102d4575b600080fd5b3480156101de57600080fd5b5061022a600480360360208110156101f557600080fd5b8101908080357bffffffffffffffffffffffffffffffffffffffffffffffffffffffff1916906020019092919050505061102a565b604051808215151515815260200191505060405180910390f35b34801561025057600080fd5b50610259611091565b6040518080602001828103825283818151815260200191508051906020019080838360005b8381101561029957808201518184015260208101905061027e565b50505050905090810190601f1680156102c65780820380516001836020036101000a031916815260200191505b509250505060405180910390f35b3480156102e057600080fd5b5061030d600480360360208110156102f757600080fd5b8101908080359060200190929190505050611133565b604051808273ffffffffffffffffffffffffffffffffffffffff1673ffffffffffffffffffffffffffffffffffffffff16815260200191505060405180910390f35b34801561035b57600080fd5b506103a86004803603604081101561037257600080fd5b81019080803573ffffffffffffffffffffffffffffffffffffffff169060200190929190803590602001909291905050506111ce565b005b3480156103b657600080fd5b506103bf611312565b6040518082815260200191505060405180910390f35b3480156103e157600080fd5b5061044e600480360360608110156103f857600080fd5b81019080803573ffffffffffffffffffffffffffffffffffffffff169060200190929190803573ffffffffffffffffffffffffffffffffffffffff16906020019092919080359060200190929190505050611323565b005b34801561045c57600080fd5b506104a96004803603604081101561047357600080fd5b8101908080359060200190929190803573ffffffffffffffffffffffffffffffffffffffff169060200190929190505050611399565b6040518082815260200191505060405180910390f35b3480156104cb57600080fd5b506104d46113be565b6040518082815260200191505060405180910390f35b6105166004803603602081101561050057600080fd5b81019080803590602001909291905050506113c4565b604051808215151515815260200191505060405180910390f35b34801561053c57600080fd5b506105896004803603604081101561055357600080fd5b81019080803573ffffffffffffffffffffffffffffffffffffffff16906020019092919080359060200190929190505050611add565b6040518082815260200191505060405180910390f35b3480156105ab57600080fd5b50610665600480360360208110156105c257600080fd5b81019080803590602001906401000000008111156105df57600080fd5b8201836020820111156105f157600080fd5b8035906020019184600183028401116401000000008311171561061357600080fd5b91908080601f016020809104026020016040519081016040528093929190818152602001838380828437600081840152601f19601f820116905080830192505050505050509192919290505050611b38565b005b34801561067357600080fd5b506106e06004803603606081101561068a57600080fd5b81019080803573ffffffffffffffffffffffffffffffffffffffff169060200190929190803573ffffffffffffffffffffffffffffffffffffffff16906020019092919080359060200190929190505050611d52565b005b3480156106ee57600080fd5b5061071b6004803603602081101561070557600080fd5b8101908080359060200190929190505050611d72565b604051808381526020018273ffffffffffffffffffffffffffffffffffffffff1673ffffffffffffffffffffffffffffffffffffffff1681526020019250505060405180910390f35b34801561077057600080fd5b5061079d6004803603602081101561078757600080fd5b8101908080359060200190929190505050611db6565b6040518082815260200191505060405180910390f35b3480156107bf57600080fd5b506107ec600480360360208110156107d657600080fd5b8101908080359060200190929190505050611dd9565b604051808273ffffffffffffffffffffffffffffffffffffffff1673ffffffffffffffffffffffffffffffffffffffff16815260200191505060405180910390f35b34801561083a57600080fd5b50610843611e10565b6040518080602001828103825283818151815260200191508051906020019080838360005b83811015610883578082015181840152602081019050610868565b50505050905090810190601f1680156108b05780820380516001836020036101000a031916815260200191505b509250505060405180910390f35b3480156108ca57600080fd5b5061090d600480360360208110156108e157600080fd5b81019080803573ffffffffffffffffffffffffffffffffffffffff169060200190929190505050611eb2565b6040518082815260200191505060405180910390f35b34801561092f57600080fd5b5061095c6004803603602081101561094657600080fd5b8101908080359060200190929190505050611f87565b6040518085815260200184815260200180602001838152602001828103825284818151815260200191508051906020019080838360005b838110156109ae578082015181840152602081019050610993565b50505050905090810190601f1680156109db5780820380516001836020036101000a031916815260200191505b509550505050505060405180910390f35b3480156109f857600080fd5b50610a2560048036036020811015610a0f57600080fd5b81019080803590602001909291905050506123a3565b604051808273ffffffffffffffffffffffffffffffffffffffff1673ffffffffffffffffffffffffffffffffffffffff16815260200191505060405180910390f35b348015610a7357600080fd5b50610a7c6123df565b604051808273ffffffffffffffffffffffffffffffffffffffff1673ffffffffffffffffffffffffffffffffffffffff16815260200191505060405180910390f35b348015610aca57600080fd5b50610b0b60048036036060811015610ae157600080fd5b81019080803590602001909291908035906020019092919080359060200190929190505050612405565b604051808215151515815260200191505060405180910390f35b348015610b3157600080fd5b50610b3a6128e2565b6040518080602001828103825283818151815260200191508051906020019080838360005b83811015610b7a578082015181840152602081019050610b5f565b50505050905090810190601f168015610ba75780820380516001836020036101000a031916815260200191505b509250505060405180910390f35b610be160048036036020811015610bcb57600080fd5b8101908080359060200190929190505050612984565b604051808215151515815260200191505060405180910390f35b348015610c0757600080fd5b50610c5660048036036040811015610c1e57600080fd5b81019080803573ffffffffffffffffffffffffffffffffffffffff169060200190929190803515159060200190929190505050613243565b005b348015610c6457600080fd5b50610c9160048036036020811015610c7b57600080fd5b81019080803590602001909291905050506133fb565b604051808873ffffffffffffffffffffffffffffffffffffffff1673ffffffffffffffffffffffffffffffffffffffff168152602001878152602001806020018615151515815260200185815260200184815260200183151515158152602001828103825287818151815260200191508051906020019080838360005b83811015610d29578082015181840152602081019050610d0e565b50505050905090810190601f168015610d565780820380516001836020036101000a031916815260200191505b509850505050505050505060405180910390f35b348015610d7657600080fd5b50610e7a60048036036080811015610d8d57600080fd5b81019080803573ffffffffffffffffffffffffffffffffffffffff169060200190929190803573ffffffffffffffffffffffffffffffffffffffff1690602001909291908035906020019092919080359060200190640100000000811115610df457600080fd5b820183602082011115610e0657600080fd5b80359060200191846001830284011164010000000083111715610e2857600080fd5b91908080601f016020809104026020016040519081016040528093929190818152602001838380828437600081840152601f19601f82011690508083019250505050505050919291929050505061350f565b005b610ea860048036036020811015610e9257600080fd5b8101908080359060200190929190505050613587565b604051808215151515815260200191505060405180910390f35b348015610ece57600080fd5b50610ed7613ddb565b6040518082815260200191505060405180910390f35b348015610ef957600080fd5b50610f2660048036036020811015610f1057600080fd5b8101908080359060200190929190505050613de1565b6040518080602001828103825283818151815260200191508051906020019080838360005b83811015610f66578082015181840152602081019050610f4b565b50505050905090810190601f168015610f935780820380516001836020036101000a031916815260200191505b509250505060405180910390f35b348015610fad57600080fd5b5061101060048036036040811015610fc457600080fd5b81019080803573ffffffffffffffffffffffffffffffffffffffff169060200190929190803573ffffffffffffffffffffffffffffffffffffffff1690602001909291905050506140ca565b604051808215151515815260200191505060405180910390f35b6000806000837bffffffffffffffffffffffffffffffffffffffffffffffffffffffff19167bffffffffffffffffffffffffffffffffffffffffffffffffffffffff1916815260200190815260200160002060009054906101000a900460ff169050919050565b606060068054600181600116156101000203166002900480601f0160208091040260200160405190810160405280929190818152602001828054600181600116156101000203166002900480156111295780601f106110fe57610100808354040283529160200191611129565b820191906000526020600020905b81548152906001019060200180831161110c57829003601f168201915b5050505050905090565b600061113e8261415e565b611193576040517f08c379a000000000000000000000000000000000000000000000000000000000815260040180806020018281038252602c8152602001806157f3602c913960400191505060405180910390fd5b6004600083815260200190815260200160002060009054906101000a900473ffffffffffffffffffffffffffffffffffffffff169050919050565b60006111d982611dd9565b90508073ffffffffffffffffffffffffffffffffffffffff168373ffffffffffffffffffffffffffffffffffffffff161415611260576040517f08c379a00000000000000000000000000000000000000000000000000000000081526004018080602001828103825260218152602001806158a36021913960400191505060405180910390fd5b8073ffffffffffffffffffffffffffffffffffffffff1661127f61417b565b73ffffffffffffffffffffffffffffffffffffffff1614806112ae57506112ad816112a861417b565b6140ca565b5b611303576040517f08c379a00000000000000000000000000000000000000000000000000000000081526004018080602001828103825260388152602001806157466038913960400191505060405180910390fd5b61130d8383614183565b505050565b600061131e600261423c565b905090565b61133461132e61417b565b82614251565b611389576040517f08c379a00000000000000000000000000000000000000000000000000000000081526004018080602001828103825260318152602001806158c46031913960400191505060405180910390fd5b611394838383614345565b505050565b600f602052816000526040600020602052806000526040600020600091509150505481565b600d5481565b6000816113cf6154cf565b600a60008381526020019081526020016000206040518060e00160405290816000820160009054906101000a900473ffffffffffffffffffffffffffffffffffffffff1673ffffffffffffffffffffffffffffffffffffffff1673ffffffffffffffffffffffffffffffffffffffff16815260200160018201548152602001600282018054600181600116156101000203166002900480601f0160208091040260200160405190810160405280929190818152602001828054600181600116156101000203166002900480156114e65780601f106114bb576101008083540402835291602001916114e6565b820191906000526020600020905b8154815290600101906020018083116114c957829003601f168201915b505050505081526020016003820160009054906101000a900460ff1615151515815260200160048201548152602001600582015481526020016006820160009054906101000a900460ff1615151515815250509050806000015173ffffffffffffffffffffffffffffffffffffffff163373ffffffffffffffffffffffffffffffffffffffff16141561157857600080fd5b836115816154cf565b600a60008381526020019081526020016000206040518060e00160405290816000820160009054906101000a900473ffffffffffffffffffffffffffffffffffffffff1673ffffffffffffffffffffffffffffffffffffffff1673ffffffffffffffffffffffffffffffffffffffff16815260200160018201548152602001600282018054600181600116156101000203166002900480601f0160208091040260200160405190810160405280929190818152602001828054600181600116156101000203166002900480156116985780601f1061166d57610100808354040283529160200191611698565b820191906000526020600020905b81548152906001019060200180831161167b57829003601f168201915b505050505081526020016003820160009054906101000a900460ff1615151515815260200160048201548152602001600582015481526020016006820160009054906101000a900460ff1615151515815250509050428160a0015111156116fe57600080fd5b6117066154cf565b600a60008881526020019081526020016000206040518060e00160405290816000820160009054906101000a900473ffffffffffffffffffffffffffffffffffffffff1673ffffffffffffffffffffffffffffffffffffffff1673ffffffffffffffffffffffffffffffffffffffff16815260200160018201548152602001600282018054600181600116156101000203166002900480601f01602080910402602001604051908101604052809291908181526020018280546001816001161561010002031660029004801561181d5780601f106117f25761010080835404028352916020019161181d565b820191906000526020600020905b81548152906001019060200180831161180057829003601f168201915b505050505081526020016003820160009054906101000a900460ff1615151515815260200160048201548152602001600582015481526020016006820160009054906101000a900460ff161515151581525050905060001515816060015115151461188757600080fd5b6000806000601060008b815260200190815260200160002090508060010160009054906101000a900473ffffffffffffffffffffffffffffffffffffffff1673ffffffffffffffffffffffffffffffffffffffff163373ffffffffffffffffffffffffffffffffffffffff16141561192c578060010160009054906101000a900473ffffffffffffffffffffffffffffffffffffffff16925080600001549150611983565b339250600f60008b815260200190815260200160002060008473ffffffffffffffffffffffffffffffffffffffff1673ffffffffffffffffffffffffffffffffffffffff1681526020019081526020016000205491505b600082141561199157600080fd5b81600f60008c815260200190815260200160002060008573ffffffffffffffffffffffffffffffffffffffff1673ffffffffffffffffffffffffffffffffffffffff168152602001908152602001600020600082825403925050819055503373ffffffffffffffffffffffffffffffffffffffff166108fc839081150290604051600060405180830381858888f19350505050611a2d57600080fd5b7f0ec497a8ae5b1ba29c60470ef651def995fac3deebbdcc56c47a4e5f51a4c2bd338484604051808473ffffffffffffffffffffffffffffffffffffffff1673ffffffffffffffffffffffffffffffffffffffff1681526020018373ffffffffffffffffffffffffffffffffffffffff1673ffffffffffffffffffffffffffffffffffffffff168152602001828152602001935050505060405180910390a1600198505050505050505050919050565b6000611b3082600160008673ffffffffffffffffffffffffffffffffffffffff1673ffffffffffffffffffffffffffffffffffffffff16815260200190815260200160002061458890919063ffffffff16565b905092915050565b600c339080600181540180825580915050600190039060005260206000200160009091909190916101000a81548173ffffffffffffffffffffffffffffffffffffffff021916908373ffffffffffffffffffffffffffffffffffffffff1602179055506000600c805490509050611baf33826145a2565b611bb981836145c0565b6040518060e001604052803373ffffffffffffffffffffffffffffffffffffffff16815260200160008152602001838152602001600015158152602001600081526020016000815260200160011515815250600a600083815260200190815260200160002060008201518160000160006101000a81548173ffffffffffffffffffffffffffffffffffffffff021916908373ffffffffffffffffffffffffffffffffffffffff160217905550602082015181600101556040820151816002019080519060200190611c8b929190615526565b5060608201518160030160006101000a81548160ff0219169083151502179055506080820151816004015560a0820151816005015560c08201518160060160006101000a81548160ff0219169083151502179055509050507f8659a8d61cb0566cae32f478e1c60186ea5332138b62484fc8ea084e453119a33382604051808373ffffffffffffffffffffffffffffffffffffffff1673ffffffffffffffffffffffffffffffffffffffff1681526020018281526020019250505060405180910390a15050565b611d6d8383836040518060200160405280600081525061350f565b505050565b60106020528060005260406000206000915090508060000154908060010160009054906101000a900473ffffffffffffffffffffffffffffffffffffffff16905082565b600080611dcd83600261464a90919063ffffffff16565b50905080915050919050565b6000611e09826040518060600160405280602981526020016157a86029913960026146799092919063ffffffff16565b9050919050565b606060098054600181600116156101000203166002900480601f016020809104026020016040519081016040528092919081815260200182805460018160011615610100020316600290048015611ea85780601f10611e7d57610100808354040283529160200191611ea8565b820191906000526020600020905b815481529060010190602001808311611e8b57829003601f168201915b5050505050905090565b60008073ffffffffffffffffffffffffffffffffffffffff168273ffffffffffffffffffffffffffffffffffffffff161415611f39576040517f08c379a000000000000000000000000000000000000000000000000000000000815260040180806020018281038252602a81526020018061577e602a913960400191505060405180910390fd5b611f80600160008473ffffffffffffffffffffffffffffffffffffffff1673ffffffffffffffffffffffffffffffffffffffff168152602001908152602001600020614698565b9050919050565b6000806060600084611f976154cf565b600a60008381526020019081526020016000206040518060e00160405290816000820160009054906101000a900473ffffffffffffffffffffffffffffffffffffffff1673ffffffffffffffffffffffffffffffffffffffff1673ffffffffffffffffffffffffffffffffffffffff16815260200160018201548152602001600282018054600181600116156101000203166002900480601f0160208091040260200160405190810160405280929190818152602001828054600181600116156101000203166002900480156120ae5780601f10612083576101008083540402835291602001916120ae565b820191906000526020600020905b81548152906001019060200180831161209157829003601f168201915b505050505081526020016003820160009054906101000a900460ff1615151515815260200160048201548152602001600582015481526020016006820160009054906101000a900460ff1615151515815250509050600115158160c00151151514612181576040517f08c379a00000000000000000000000000000000000000000000000000000000081526004018080602001828103825260098152602001807f4e6f7420466f756e64000000000000000000000000000000000000000000000081525060200191505060405180910390fd5b6121896154cf565b600a60008981526020019081526020016000206040518060e00160405290816000820160009054906101000a900473ffffffffffffffffffffffffffffffffffffffff1673ffffffffffffffffffffffffffffffffffffffff1673ffffffffffffffffffffffffffffffffffffffff16815260200160018201548152602001600282018054600181600116156101000203166002900480601f0160208091040260200160405190810160405280929190818152602001828054600181600116156101000203166002900480156122a05780601f10612275576101008083540402835291602001916122a0565b820191906000526020600020905b81548152906001019060200180831161228357829003601f168201915b505050505081526020016003820160009054906101000a900460ff1615151515815260200160048201548152602001600582015481526020016006820160009054906101000a900460ff16151515158152505090506122fd6155a6565b601060008a8152602001908152602001600020604051806040016040529081600082015481526020016001820160009054906101000a900473ffffffffffffffffffffffffffffffffffffffff1673ffffffffffffffffffffffffffffffffffffffff1673ffffffffffffffffffffffffffffffffffffffff16815250509050888260200151836040015183600001518191509750975097509750505050509193509193565b600c81815481106123b057fe5b906000526020600020016000915054906101000a900473ffffffffffffffffffffffffffffffffffffffff1681565b600b60009054906101000a900473ffffffffffffffffffffffffffffffffffffffff1681565b6000836124106154cf565b600a60008381526020019081526020016000206040518060e00160405290816000820160009054906101000a900473ffffffffffffffffffffffffffffffffffffffff1673ffffffffffffffffffffffffffffffffffffffff1673ffffffffffffffffffffffffffffffffffffffff16815260200160018201548152602001600282018054600181600116156101000203166002900480601f0160208091040260200160405190810160405280929190818152602001828054600181600116156101000203166002900480156125275780601f106124fc57610100808354040283529160200191612527565b820191906000526020600020905b81548152906001019060200180831161250a57829003601f168201915b505050505081526020016003820160009054906101000a900460ff1615151515815260200160048201548152602001600582015481526020016006820160009054906101000a900460ff1615151515815250509050806000015173ffffffffffffffffffffffffffffffffffffffff163373ffffffffffffffffffffffffffffffffffffffff16146125b857600080fd5b600085101561262f576040517f08c379a000000000000000000000000000000000000000000000000000000000815260040180806020018281038252601b8152602001807f50726963652063616e6e6f74206265206c657373207468616e2030000000000081525060200191505060405180910390fd5b6126376154cf565b600a60008881526020019081526020016000206040518060e00160405290816000820160009054906101000a900473ffffffffffffffffffffffffffffffffffffffff1673ffffffffffffffffffffffffffffffffffffffff1673ffffffffffffffffffffffffffffffffffffffff16815260200160018201548152602001600282018054600181600116156101000203166002900480601f01602080910402602001604051908101604052809291908181526020018280546001816001161561010002031660029004801561274e5780601f106127235761010080835404028352916020019161274e565b820191906000526020600020905b81548152906001019060200180831161273157829003601f168201915b505050505081526020016003820160009054906101000a900460ff1615151515815260200160048201548152602001600582015481526020016006820160009054906101000a900460ff16151515158152505090506060816040015190506040518060e001604052803373ffffffffffffffffffffffffffffffffffffffff16815260200188815260200182815260200160011515815260200142815260200187815260200160011515815250600a60008a815260200190815260200160002060008201518160000160006101000a81548173ffffffffffffffffffffffffffffffffffffffff021916908373ffffffffffffffffffffffffffffffffffffffff16021790555060208201518160010155604082015181600201908051906020019061287b929190615526565b5060608201518160030160006101000a81548160ff0219169083151502179055506080820151816004015560a0820151816005015560c08201518160060160006101000a81548160ff02191690831515021790555090505060019450505050509392505050565b606060078054600181600116156101000203166002900480601f01602080910402602001604051908101604052809291908181526020018280546001816001161561010002031660029004801561297a5780601f1061294f5761010080835404028352916020019161297a565b820191906000526020600020905b81548152906001019060200180831161295d57829003601f168201915b5050505050905090565b60008161298f6154cf565b600a60008381526020019081526020016000206040518060e00160405290816000820160009054906101000a900473ffffffffffffffffffffffffffffffffffffffff1673ffffffffffffffffffffffffffffffffffffffff1673ffffffffffffffffffffffffffffffffffffffff16815260200160018201548152602001600282018054600181600116156101000203166002900480601f016020809104026020016040519081016040528092919081815260200182805460018160011615610100020316600290048015612aa65780601f10612a7b57610100808354040283529160200191612aa6565b820191906000526020600020905b815481529060010190602001808311612a8957829003601f168201915b505050505081526020016003820160009054906101000a900460ff1615151515815260200160048201548152602001600582015481526020016006820160009054906101000a900460ff1615151515815250509050600115158160600151151514612b1057600080fd5b83612b196154cf565b600a60008381526020019081526020016000206040518060e00160405290816000820160009054906101000a900473ffffffffffffffffffffffffffffffffffffffff1673ffffffffffffffffffffffffffffffffffffffff1673ffffffffffffffffffffffffffffffffffffffff16815260200160018201548152602001600282018054600181600116156101000203166002900480601f016020809104026020016040519081016040528092919081815260200182805460018160011615610100020316600290048015612c305780601f10612c0557610100808354040283529160200191612c30565b820191906000526020600020905b815481529060010190602001808311612c1357829003601f168201915b505050505081526020016003820160009054906101000a900460ff1615151515815260200160048201548152602001600582015481526020016006820160009054906101000a900460ff1615151515815250509050806000015173ffffffffffffffffffffffffffffffffffffffff163373ffffffffffffffffffffffffffffffffffffffff161415612cc257600080fd5b85612ccb6154cf565b600a60008381526020019081526020016000206040518060e00160405290816000820160009054906101000a900473ffffffffffffffffffffffffffffffffffffffff1673ffffffffffffffffffffffffffffffffffffffff1673ffffffffffffffffffffffffffffffffffffffff16815260200160018201548152602001600282018054600181600116156101000203166002900480601f016020809104026020016040519081016040528092919081815260200182805460018160011615610100020316600290048015612de25780601f10612db757610100808354040283529160200191612de2565b820191906000526020600020905b815481529060010190602001808311612dc557829003601f168201915b505050505081526020016003820160009054906101000a900460ff1615151515815260200160048201548152602001600582015481526020016006820160009054906101000a900460ff16151515158152505090508060200151341015612e4857600080fd5b6000341415612e5657600080fd5b6000601060008a81526020019081526020016000209050612e756154cf565b600a60008b81526020019081526020016000206040518060e00160405290816000820160009054906101000a900473ffffffffffffffffffffffffffffffffffffffff1673ffffffffffffffffffffffffffffffffffffffff1673ffffffffffffffffffffffffffffffffffffffff16815260200160018201548152602001600282018054600181600116156101000203166002900480601f016020809104026020016040519081016040528092919081815260200182805460018160011615610100020316600290048015612f8c5780601f10612f6157610100808354040283529160200191612f8c565b820191906000526020600020905b815481529060010190602001808311612f6f57829003601f168201915b505050505081526020016003820160009054906101000a900460ff1615151515815260200160048201548152602001600582015481526020016006820160009054906101000a900460ff161515151581525050905060001515816060015115151415612ff757600080fd5b600082600001549050600034600f60008e815260200190815260200160002060003373ffffffffffffffffffffffffffffffffffffffff1673ffffffffffffffffffffffffffffffffffffffff1681526020019081526020016000205401905081811161306357600080fd5b8360010160009054906101000a900473ffffffffffffffffffffffffffffffffffffffff1673ffffffffffffffffffffffffffffffffffffffff163373ffffffffffffffffffffffffffffffffffffffff1614156130c057600080fd5b80600f60008e815260200190815260200160002060003373ffffffffffffffffffffffffffffffffffffffff1673ffffffffffffffffffffffffffffffffffffffff16815260200190815260200160002081905550808460000181905550338460010160006101000a81548173ffffffffffffffffffffffffffffffffffffffff021916908373ffffffffffffffffffffffffffffffffffffffff1602179055507f49e60d8d833f1250f6ede154509b047fe77c1eae57655e8176675b5f91af7b0a33828660010160009054906101000a900473ffffffffffffffffffffffffffffffffffffffff168760000154604051808573ffffffffffffffffffffffffffffffffffffffff1673ffffffffffffffffffffffffffffffffffffffff1681526020018481526020018373ffffffffffffffffffffffffffffffffffffffff1673ffffffffffffffffffffffffffffffffffffffff16815260200182815260200194505050505060405180910390a160019a5050505050505050505050919050565b61324b61417b565b73ffffffffffffffffffffffffffffffffffffffff168273ffffffffffffffffffffffffffffffffffffffff1614156132ec576040517f08c379a00000000000000000000000000000000000000000000000000000000081526004018080602001828103825260198152602001807f4552433732313a20617070726f766520746f2063616c6c65720000000000000081525060200191505060405180910390fd5b80600560006132f961417b565b73ffffffffffffffffffffffffffffffffffffffff1673ffffffffffffffffffffffffffffffffffffffff16815260200190815260200160002060008473ffffffffffffffffffffffffffffffffffffffff1673ffffffffffffffffffffffffffffffffffffffff16815260200190815260200160002060006101000a81548160ff0219169083151502179055508173ffffffffffffffffffffffffffffffffffffffff166133a661417b565b73ffffffffffffffffffffffffffffffffffffffff167f17307eab39ab6107e8899845ad3d59bd9653f200f220920489ca2b5937696c3183604051808215151515815260200191505060405180910390a35050565b600a6020528060005260406000206000915090508060000160009054906101000a900473ffffffffffffffffffffffffffffffffffffffff1690806001015490806002018054600181600116156101000203166002900480601f0160208091040260200160405190810160405280929190818152602001828054600181600116156101000203166002900480156134d35780601f106134a8576101008083540402835291602001916134d3565b820191906000526020600020905b8154815290600101906020018083116134b657829003601f168201915b5050505050908060030160009054906101000a900460ff16908060040154908060050154908060060160009054906101000a900460ff16905087565b61352061351a61417b565b83614251565b613575576040517f08c379a00000000000000000000000000000000000000000000000000000000081526004018080602001828103825260318152602001806158c46031913960400191505060405180910390fd5b613581848484846146ad565b50505050565b6000816135926154cf565b600a60008381526020019081526020016000206040518060e00160405290816000820160009054906101000a900473ffffffffffffffffffffffffffffffffffffffff1673ffffffffffffffffffffffffffffffffffffffff1673ffffffffffffffffffffffffffffffffffffffff16815260200160018201548152602001600282018054600181600116156101000203166002900480601f0160208091040260200160405190810160405280929190818152602001828054600181600116156101000203166002900480156136a95780601f1061367e576101008083540402835291602001916136a9565b820191906000526020600020905b81548152906001019060200180831161368c57829003601f168201915b505050505081526020016003820160009054906101000a900460ff1615151515815260200160048201548152602001600582015481526020016006820160009054906101000a900460ff1615151515815250509050806000015173ffffffffffffffffffffffffffffffffffffffff163373ffffffffffffffffffffffffffffffffffffffff161461373a57600080fd5b836137436154cf565b600a60008381526020019081526020016000206040518060e00160405290816000820160009054906101000a900473ffffffffffffffffffffffffffffffffffffffff1673ffffffffffffffffffffffffffffffffffffffff1673ffffffffffffffffffffffffffffffffffffffff16815260200160018201548152602001600282018054600181600116156101000203166002900480601f01602080910402602001604051908101604052809291908181526020018280546001816001161561010002031660029004801561385a5780601f1061382f5761010080835404028352916020019161385a565b820191906000526020600020905b81548152906001019060200180831161383d57829003601f168201915b505050505081526020016003820160009054906101000a900460ff1615151515815260200160048201548152602001600582015481526020016006820160009054906101000a900460ff16151515158152505090506001151581606001511515146138c457600080fd5b856138cd6154cf565b600a60008381526020019081526020016000206040518060e00160405290816000820160009054906101000a900473ffffffffffffffffffffffffffffffffffffffff1673ffffffffffffffffffffffffffffffffffffffff1673ffffffffffffffffffffffffffffffffffffffff16815260200160018201548152602001600282018054600181600116156101000203166002900480601f0160208091040260200160405190810160405280929190818152602001828054600181600116156101000203166002900480156139e45780601f106139b9576101008083540402835291602001916139e4565b820191906000526020600020905b8154815290600101906020018083116139c757829003601f168201915b505050505081526020016003820160009054906101000a900460ff1615151515815260200160048201548152602001600582015481526020016006820160009054906101000a900460ff1615151515815250509050428160a001511115613a4a57600080fd5b613a526154cf565b600a60008a81526020019081526020016000206040518060e00160405290816000820160009054906101000a900473ffffffffffffffffffffffffffffffffffffffff1673ffffffffffffffffffffffffffffffffffffffff1673ffffffffffffffffffffffffffffffffffffffff16815260200160018201548152602001600282018054600181600116156101000203166002900480601f016020809104026020016040519081016040528092919081815260200182805460018160011615610100020316600290048015613b695780601f10613b3e57610100808354040283529160200191613b69565b820191906000526020600020905b815481529060010190602001808311613b4c57829003601f168201915b505050505081526020016003820160009054906101000a900460ff1615151515815260200160048201548152602001600582015481526020016006820160009054906101000a900460ff16151515158152505090506000601060008b81526020019081526020016000209050613c04338260010160009054906101000a900473ffffffffffffffffffffffffffffffffffffffff168c611d52565b6060826040015190506040518060e001604052808360010160009054906101000a900473ffffffffffffffffffffffffffffffffffffffff1673ffffffffffffffffffffffffffffffffffffffff16815260200160008152602001828152602001600015158152602001600081526020016000815260200160011515815250600a60008d815260200190815260200160002060008201518160000160006101000a81548173ffffffffffffffffffffffffffffffffffffffff021916908373ffffffffffffffffffffffffffffffffffffffff160217905550602082015181600101556040820151816002019080519060200190613d03929190615526565b5060608201518160030160006101000a81548160ff0219169083151502179055506080820151816004015560a0820151816005015560c08201518160060160006101000a81548160ff0219169083151502179055509050503373ffffffffffffffffffffffffffffffffffffffff166108fc83600001549081150290604051600060405180830381858888f19350505050613d9d57600080fd5b7f7a0dc74d755d19d9618c786e9b4d5f2997bb95098def878e46ea29560fdf73b360405160405180910390a160019950505050505050505050919050565b600e5481565b6060613dec8261415e565b613e41576040517f08c379a000000000000000000000000000000000000000000000000000000000815260040180806020018281038252602f815260200180615874602f913960400191505060405180910390fd5b6060600860008481526020019081526020016000208054600181600116156101000203166002900480601f016020809104026020016040519081016040528092919081815260200182805460018160011615610100020316600290048015613eea5780601f10613ebf57610100808354040283529160200191613eea565b820191906000526020600020905b815481529060010190602001808311613ecd57829003601f168201915b50505050509050600060098054600181600116156101000203166002900490501415613f1957809150506140c5565b600081511115613ff2576009816040516020018083805460018160011615610100020316600290048015613f845780601f10613f62576101008083540402835291820191613f84565b820191906000526020600020905b815481529060010190602001808311613f70575b505082805190602001908083835b60208310613fb55780518252602082019150602081019050602083039250613f92565b6001836020036101000a038019825116818451168082178552505050505050905001925050506040516020818303038152906040529150506140c5565b6009613ffd8461471f565b604051602001808380546001816001161561010002031660029004801561405b5780601f1061403957610100808354040283529182019161405b565b820191906000526020600020905b815481529060010190602001808311614047575b505082805190602001908083835b6020831061408c5780518252602082019150602081019050602083039250614069565b6001836020036101000a038019825116818451168082178552505050505050905001925050506040516020818303038152906040529150505b919050565b6000600560008473ffffffffffffffffffffffffffffffffffffffff1673ffffffffffffffffffffffffffffffffffffffff16815260200190815260200160002060008373ffffffffffffffffffffffffffffffffffffffff1673ffffffffffffffffffffffffffffffffffffffff16815260200190815260200160002060009054906101000a900460ff16905092915050565b600061417482600261484f90919063ffffffff16565b9050919050565b600033905090565b816004600083815260200190815260200160002060006101000a81548173ffffffffffffffffffffffffffffffffffffffff021916908373ffffffffffffffffffffffffffffffffffffffff160217905550808273ffffffffffffffffffffffffffffffffffffffff166141f683611dd9565b73ffffffffffffffffffffffffffffffffffffffff167f8c5be1e5ebec7d5bd14f71427d1e84f3dd0314c0f7b2291e5b200ac8c7c3b92560405160405180910390a45050565b600061424a82600001614869565b9050919050565b600061425c8261415e565b6142b1576040517f08c379a000000000000000000000000000000000000000000000000000000000815260040180806020018281038252602c81526020018061571a602c913960400191505060405180910390fd5b60006142bc83611dd9565b90508073ffffffffffffffffffffffffffffffffffffffff168473ffffffffffffffffffffffffffffffffffffffff16148061432b57508373ffffffffffffffffffffffffffffffffffffffff1661431384611133565b73ffffffffffffffffffffffffffffffffffffffff16145b8061433c575061433b81856140ca565b5b91505092915050565b8273ffffffffffffffffffffffffffffffffffffffff1661436582611dd9565b73ffffffffffffffffffffffffffffffffffffffff16146143d1576040517f08c379a000000000000000000000000000000000000000000000000000000000815260040180806020018281038252602981526020018061584b6029913960400191505060405180910390fd5b600073ffffffffffffffffffffffffffffffffffffffff168273ffffffffffffffffffffffffffffffffffffffff161415614457576040517f08c379a00000000000000000000000000000000000000000000000000000000081526004018080602001828103825260248152602001806156d06024913960400191505060405180910390fd5b61446283838361487a565b61446d600082614183565b6144be81600160008673ffffffffffffffffffffffffffffffffffffffff1673ffffffffffffffffffffffffffffffffffffffff16815260200190815260200160002061487f90919063ffffffff16565b5061451081600160008573ffffffffffffffffffffffffffffffffffffffff1673ffffffffffffffffffffffffffffffffffffffff16815260200190815260200160002061489990919063ffffffff16565b50614527818360026148b39092919063ffffffff16565b50808273ffffffffffffffffffffffffffffffffffffffff168473ffffffffffffffffffffffffffffffffffffffff167fddf252ad1be2c89b69c2b068fc378daa952ba7f163c4a11628f55a4df523b3ef60405160405180910390a4505050565b600061459783600001836148e8565b60001c905092915050565b6145bc82826040518060200160405280600081525061496b565b5050565b6145c98261415e565b61461e576040517f08c379a000000000000000000000000000000000000000000000000000000000815260040180806020018281038252602c81526020018061581f602c913960400191505060405180910390fd5b806008600084815260200190815260200160002090805190602001906146459291906155d6565b505050565b60008060008061465d86600001866149dc565b915091508160001c8160001c8090509350935050509250929050565b600061468c846000018460001b84614a75565b60001c90509392505050565b60006146a682600001614b6b565b9050919050565b6146b8848484614345565b6146c484848484614b7c565b614719576040517f08c379a000000000000000000000000000000000000000000000000000000000815260040180806020018281038252603281526020018061569e6032913960400191505060405180910390fd5b50505050565b60606000821415614767576040518060400160405280600181526020017f3000000000000000000000000000000000000000000000000000000000000000815250905061484a565b600082905060005b60008214614791578080600101915050600a828161478957fe5b04915061476f565b6060816040519080825280601f01601f1916602001820160405280156147c65781602001600182028036833780820191505090505b50905060006001830390508593505b6000841461484257600a84816147e757fe5b0660300160f81b8282806001900393508151811061480157fe5b60200101907effffffffffffffffffffffffffffffffffffffffffffffffffffffffffffff1916908160001a905350600a848161483a57fe5b0493506147d5565b819450505050505b919050565b6000614861836000018360001b614dc1565b905092915050565b600081600001805490509050919050565b505050565b6000614891836000018360001b614de4565b905092915050565b60006148ab836000018360001b614ecc565b905092915050565b60006148df846000018460001b8473ffffffffffffffffffffffffffffffffffffffff1660001b614f3c565b90509392505050565b600081836000018054905011614949576040517f08c379a000000000000000000000000000000000000000000000000000000000815260040180806020018281038252602281526020018061567c6022913960400191505060405180910390fd5b82600001828154811061495857fe5b9060005260206000200154905092915050565b6149758383615018565b6149826000848484614b7c565b6149d7576040517f08c379a000000000000000000000000000000000000000000000000000000000815260040180806020018281038252603281526020018061569e6032913960400191505060405180910390fd5b505050565b60008082846000018054905011614a3e576040517f08c379a00000000000000000000000000000000000000000000000000000000081526004018080602001828103825260228152602001806157d16022913960400191505060405180910390fd5b6000846000018481548110614a4f57fe5b906000526020600020906002020190508060000154816001015492509250509250929050565b60008084600101600085815260200190815260200160002054905060008114158390614b3c576040517f08c379a00000000000000000000000000000000000000000000000000000000081526004018080602001828103825283818151815260200191508051906020019080838360005b83811015614b01578082015181840152602081019050614ae6565b50505050905090810190601f168015614b2e5780820380516001836020036101000a031916815260200191505b509250505060405180910390fd5b50846000016001820381548110614b4f57fe5b9060005260206000209060020201600101549150509392505050565b600081600001805490509050919050565b6000614b9d8473ffffffffffffffffffffffffffffffffffffffff1661520c565b614baa5760019050614db9565b6060614d4063150b7a0260e01b614bbf61417b565b888787604051602401808573ffffffffffffffffffffffffffffffffffffffff1673ffffffffffffffffffffffffffffffffffffffff1681526020018473ffffffffffffffffffffffffffffffffffffffff1673ffffffffffffffffffffffffffffffffffffffff16815260200183815260200180602001828103825283818151815260200191508051906020019080838360005b83811015614c6f578082015181840152602081019050614c54565b50505050905090810190601f168015614c9c5780820380516001836020036101000a031916815260200191505b5095505050505050604051602081830303815290604052907bffffffffffffffffffffffffffffffffffffffffffffffffffffffff19166020820180517bffffffffffffffffffffffffffffffffffffffffffffffffffffffff838183161783525050505060405180606001604052806032815260200161569e603291398773ffffffffffffffffffffffffffffffffffffffff1661521f9092919063ffffffff16565b90506000818060200190516020811015614d5957600080fd5b8101908080519060200190929190505050905063150b7a0260e01b7bffffffffffffffffffffffffffffffffffffffffffffffffffffffff1916817bffffffffffffffffffffffffffffffffffffffffffffffffffffffff191614925050505b949350505050565b600080836001016000848152602001908152602001600020541415905092915050565b60008083600101600084815260200190815260200160002054905060008114614ec05760006001820390506000600186600001805490500390506000866000018281548110614e2f57fe5b9060005260206000200154905080876000018481548110614e4c57fe5b9060005260206000200181905550600183018760010160008381526020019081526020016000208190555086600001805480614e8457fe5b60019003818190600052602060002001600090559055866001016000878152602001908152602001600020600090556001945050505050614ec6565b60009150505b92915050565b6000614ed88383615237565b614f31578260000182908060018154018082558091505060019003906000526020600020016000909190919091505582600001805490508360010160008481526020019081526020016000208190555060019050614f36565b600090505b92915050565b6000808460010160008581526020019081526020016000205490506000811415614fe357846000016040518060400160405280868152602001858152509080600181540180825580915050600190039060005260206000209060020201600090919091909150600082015181600001556020820151816001015550508460000180549050856001016000868152602001908152602001600020819055506001915050615011565b82856000016001830381548110614ff657fe5b90600052602060002090600202016001018190555060009150505b9392505050565b600073ffffffffffffffffffffffffffffffffffffffff168273ffffffffffffffffffffffffffffffffffffffff1614156150bb576040517f08c379a00000000000000000000000000000000000000000000000000000000081526004018080602001828103825260208152602001807f4552433732313a206d696e7420746f20746865207a65726f206164647265737381525060200191505060405180910390fd5b6150c48161415e565b15615137576040517f08c379a000000000000000000000000000000000000000000000000000000000815260040180806020018281038252601c8152602001807f4552433732313a20746f6b656e20616c7265616479206d696e7465640000000081525060200191505060405180910390fd5b6151436000838361487a565b61519481600160008573ffffffffffffffffffffffffffffffffffffffff1673ffffffffffffffffffffffffffffffffffffffff16815260200190815260200160002061489990919063ffffffff16565b506151ab818360026148b39092919063ffffffff16565b50808273ffffffffffffffffffffffffffffffffffffffff16600073ffffffffffffffffffffffffffffffffffffffff167fddf252ad1be2c89b69c2b068fc378daa952ba7f163c4a11628f55a4df523b3ef60405160405180910390a45050565b600080823b905060008111915050919050565b606061522e848460008561525a565b90509392505050565b600080836001016000848152602001908152602001600020541415905092915050565b6060824710156152b5576040517f08c379a00000000000000000000000000000000000000000000000000000000081526004018080602001828103825260268152602001806156f46026913960400191505060405180910390fd5b6152be8561520c565b615330576040517f08c379a000000000000000000000000000000000000000000000000000000000815260040180806020018281038252601d8152602001807f416464726573733a2063616c6c20746f206e6f6e2d636f6e747261637400000081525060200191505060405180910390fd5b600060608673ffffffffffffffffffffffffffffffffffffffff1685876040518082805190602001908083835b60208310615380578051825260208201915060208101905060208303925061535d565b6001836020036101000a03801982511681845116808217855250505050505090500191505060006040518083038185875af1925050503d80600081146153e2576040519150601f19603f3d011682016040523d82523d6000602084013e6153e7565b606091505b50915091506153f7828286615403565b92505050949350505050565b60608315615413578290506154c8565b6000835111156154265782518084602001fd5b816040517f08c379a00000000000000000000000000000000000000000000000000000000081526004018080602001828103825283818151815260200191508051906020019080838360005b8381101561548d578082015181840152602081019050615472565b50505050905090810190601f1680156154ba5780820380516001836020036101000a031916815260200191505b509250505060405180910390fd5b9392505050565b6040518060e00160405280600073ffffffffffffffffffffffffffffffffffffffff168152602001600081526020016060815260200160001515815260200160008152602001600081526020016000151581525090565b828054600181600116156101000203166002900490600052602060002090601f016020900481019282601f1061556757805160ff1916838001178555615595565b82800160010185558215615595579182015b82811115615594578251825591602001919060010190615579565b5b5090506155a29190615656565b5090565b604051806040016040528060008152602001600073ffffffffffffffffffffffffffffffffffffffff1681525090565b828054600181600116156101000203166002900490600052602060002090601f016020900481019282601f1061561757805160ff1916838001178555615645565b82800160010185558215615645579182015b82811115615644578251825591602001919060010190615629565b5b5090506156529190615656565b5090565b61567891905b8082111561567457600081600090555060010161565c565b5090565b9056fe456e756d657261626c655365743a20696e646578206f7574206f6620626f756e64734552433732313a207472616e7366657220746f206e6f6e20455243373231526563656976657220696d706c656d656e7465724552433732313a207472616e7366657220746f20746865207a65726f2061646472657373416464726573733a20696e73756666696369656e742062616c616e636520666f722063616c6c4552433732313a206f70657261746f7220717565727920666f72206e6f6e6578697374656e7420746f6b656e4552433732313a20617070726f76652063616c6c6572206973206e6f74206f776e6572206e6f7220617070726f76656420666f7220616c6c4552433732313a2062616c616e636520717565727920666f7220746865207a65726f20616464726573734552433732313a206f776e657220717565727920666f72206e6f6e6578697374656e7420746f6b656e456e756d657261626c654d61703a20696e646578206f7574206f6620626f756e64734552433732313a20617070726f76656420717565727920666f72206e6f6e6578697374656e7420746f6b656e4552433732314d657461646174613a2055524920736574206f66206e6f6e6578697374656e7420746f6b656e4552433732313a207472616e73666572206f6620746f6b656e2074686174206973206e6f74206f776e4552433732314d657461646174613a2055524920717565727920666f72206e6f6e6578697374656e7420746f6b656e4552433732313a20617070726f76616c20746f2063757272656e74206f776e65724552433732313a207472616e736665722063616c6c6572206973206e6f74206f776e6572206e6f7220617070726f766564a26469706673582212206b981027460ff0d4c170d6d5f122ad8178f730d3051d2c3705c1f7677527df6b64736f6c63430006030033",
  "source": "// SPDX-License-Identifier: MIT\n\npragma solidity ^0.6.3;\n\nimport \"./tools/ERC721.sol\";\nimport \"./tools/SafeMath.sol\";\n\ncontract RegalAuction is ERC721 {\n    \n    /**\n    * @dev \n    */\n    struct History {\n        address owned;\n        uint256 price;\n    }\n    \n    \n    /**\n    * @dev A struct for storing the information of NFT's on the platform.\n    * @param _tokenId represents a specific deed\n    * @param _uri text which describes the characteristics of a given deed\n    * @return whether the deed metadata was added to the repository\n    */\n    struct RegalCollectible {\n        address payable seller; // 0x01wd...\n        uint256 minbid; // 0\n        string tokenURI; // \"https://...\"\n        bool sale; // false\n        uint256 startTime; // 0\n        uint256 endTime; // 0 \n        bool minted;\n    }\n    \n    struct bidding {\n        uint currentHighestBid;\n        address payable highestBidder;\n    }\n    \n    mapping(uint256 => RegalCollectible) public _regalCollectibles; \n\n    /**\n    * @dev \n     */\n    address public owner;  \n    address [] public minters;\n    \n    /// * added for future use\n    using SafeMath for uint256;\n\n    //Note: Token is minted after it is sold or after auction ends\n  \n    //variables that are dynamic or change\n    uint256 public _regalIds;  // minted\n    uint256 public _collectibleIds; // not minted\n    \n    mapping(uint256=>mapping(address => uint256)) public fundsByBidder;\n    mapping(uint256=>bidding) public bid;  //mapping tokenid to bidding\n\n    //Events\n    event LogBid(address bidder, uint bid, address highestBidder, uint highestBid);   \n    event LogWithdrawal(address withdrawer, address withdrawalAccount, uint amount);\n    event LogEnded();\n    \n\n    constructor() payable public ERC721(\"RegalToken\", \"RGL\") {   \n        owner = msg.sender;\n    }\n    \n    /**\n    * @dev A function for minting valid collectibles and storing them in our contracts memory. \n    * @param _tokenURI represents a specific collectible's IPFS URI, carrying it's discription.\n    */\n\n    function createCollectible(string memory _tokenURI) public {\n        minters.push(msg.sender);\n        uint _id = minters.length;\n        _safeMint(msg.sender, _id);\n        _setTokenURI(_id, _tokenURI);\n        _regalCollectibles[_id] = RegalCollectible(payable(msg.sender), 0, _tokenURI, false, 0, 0, true);\n        emit CollectibleCreated(msg.sender, _id);\n    }\n\n    /**\n    * @dev \n    * @param _id (uint) represents the id associated to a specific .\n    * @param _minbid (uint256) represents a specific collectible's IPFS URI, carrying it's discription.\n    * @param _end (uint256) represents a specific collectible's IPFS URI, carrying it's discription.       \n    * @return _success (bool) is returned on a sucessful invocation.  \n    */\n\n    function startAuction(uint _id, uint256 _minbid, uint256 _end) \n        public \n        onlyOwner(_id) // validates ownership of the collectible\n        returns (bool _success) {\n            require(_minbid >= 0, \"Price cannot be less than 0\");\n            RegalCollectible memory collectible = _regalCollectibles[_id];\n            string memory _uri = collectible.tokenURI;\n            _regalCollectibles[_id] = RegalCollectible(payable(msg.sender), _minbid, _uri, true, block.timestamp, _end, true);\n            return true;\n    }\n    \n    function placeBid(uint256 id) public payable onlyOnSale(id) onlyNotOwner(id) onlyMinBid(id) returns (bool success) {\n        // reject payments of 0 ETH\n        if (msg.value == 0) revert();\n            \n            bidding storage collectibleBid = bid[id]; \n            RegalCollectible memory collectible = _regalCollectibles[id]; \n        \n        if (collectible.sale == false) revert();\n            \n            uint highestBid = collectibleBid.currentHighestBid;\n            uint newBid = fundsByBidder[id][msg.sender] + msg.value;\n        \n        if (newBid <= highestBid) revert();\n        \n        if (msg.sender == collectibleBid.highestBidder) revert();\n        \n            fundsByBidder[id][msg.sender] = newBid;\n            collectibleBid.currentHighestBid = newBid;\n            collectibleBid.highestBidder = msg.sender;\n    \n            LogBid(msg.sender, newBid, collectibleBid.highestBidder, collectibleBid.currentHighestBid);\n            return true;\n    }\n\n    function endAuction(uint256 _id) public payable \n            onlyOwner(_id) \n            onlyOnSale(_id) \n            onlyAfter(_id) \n            returns (bool success) {\n        // the auction's owner should be allowed to withdraw the highestBindingBid\n        RegalCollectible memory collectible = _regalCollectibles[_id];  \n        bidding storage collectibleBid = bid[_id];\n        safeTransferFrom(msg.sender, collectibleBid.highestBidder, _id);\n        \n        string memory _uri = collectible.tokenURI;\n        _regalCollectibles[_id] = RegalCollectible(payable(collectibleBid.highestBidder), 0, _uri, false, 0, 0, true);\n        \n        if (!msg.sender.send(collectibleBid.currentHighestBid)) revert();\n        \n        LogEnded();\n        return true;\n    }\n    \n    function withdraw(uint256 id) public payable onlyNotOwner(id) onlyAfter(id) returns (bool success) {   \n        RegalCollectible memory collectible = _regalCollectibles[id];  \n        require(collectible.sale == false);\n        \n        address payable withdrawalAccount;\n        uint withdrawalAmount;\n        bidding storage collectibleBid = bid[id]; \n    \n        if (msg.sender == collectibleBid.highestBidder) {\n            withdrawalAccount = collectibleBid.highestBidder;\n            withdrawalAmount = collectibleBid.currentHighestBid;\n        }\n        else {\n            // anyone who participated but did not win the auction should be allowed to withdraw\n            // the full amount of their funds\n            withdrawalAccount = msg.sender;\n            withdrawalAmount = fundsByBidder[id][withdrawalAccount];\n        }\n\n        if (withdrawalAmount == 0) revert();\n        fundsByBidder[id][withdrawalAccount] -= withdrawalAmount;\n    \n        // send the funds\n        if (!msg.sender.send(withdrawalAmount)) revert();\n        LogWithdrawal(msg.sender, withdrawalAccount, withdrawalAmount);\n    \n        return true;\n    }\n    \n    function getCollectible(uint256 id)   //get art item info\n        public\n        view\n        collectibleExists(id)\n        returns (\n        uint256,\n        uint256,\n        string memory,\n        uint256\n        )\n    {\n        RegalCollectible memory collectible = _regalCollectibles[id];\n        bidding memory collectibleBid = bid[id]; \n        return (id, collectible.minbid, collectible.tokenURI, collectibleBid.currentHighestBid);\n    }\n    \n\n    event CollectibleCreated(address, uint256 _id);\n\n    \n    modifier onlyAfter(uint256 id) {\n        RegalCollectible memory collectible = _regalCollectibles[id];\n        if (collectible.endTime > now) revert();\n        _;\n    }\n\n    \n    modifier onlyOnSale(uint256 id) { \n        RegalCollectible memory collectible = _regalCollectibles[id];\n        if (collectible.sale != true) revert();\n        _;\n    }\n    \n    modifier onlyOwner(uint256 id) {\n        RegalCollectible memory collectible = _regalCollectibles[id];   \n        if (msg.sender != collectible.seller) revert();\n         _;\n     }\n     \n    modifier onlyNotOwner(uint256 id) { \n        RegalCollectible memory collectible = _regalCollectibles[id];\n        if (msg.sender == collectible.seller) revert();\n        _;\n        \n    }\n    \n    modifier onlyMinBid(uint256 id) {\n        RegalCollectible memory collectible = _regalCollectibles[id];\n        if(msg.value < collectible.minbid) revert();\n        _;\n    } \n    \n    modifier collectibleExists(uint256 id) { \n        RegalCollectible memory collectible = _regalCollectibles[id];\n        require(collectible.minted == true, \"Not Found\");\n        _;\n    }\n\n    modifier onlyAdmin() {\n        if (msg.sender != owner) revert();\n         _;\n    } \n    \n}",
  "sourcePath": "/Users/ramtin/Desktop/reGal/client/contracts/RegalAuction.sol",
  "compiler": {
    "name": "solc",
    "version": "0.6.3+commit.8dda9521.Emscripten.clang"
  },
  "schemaVersion": "3.4.1",
  "updatedAt": "2021-06-11T21:33:13.838Z",
  "networkType": "ethereum",
  "devdoc": {
    "methods": {
      "approve(address,uint256)": {
        "details": "See {IERC721-approve}."
      },
      "balanceOf(address)": {
        "details": "See {IERC721-balanceOf}."
      },
      "baseURI()": {
        "details": "Returns the base URI set via {_setBaseURI}. This will be automatically added as a prefix in {tokenURI} to each token's URI, or to the token ID if no specific URI is set for that token ID."
      },
      "createCollectible(string)": {
        "details": "A function for minting valid collectibles and storing them in our contracts memory. ",
        "params": {
          "_tokenURI": "represents a specific collectible's IPFS URI, carrying it's discription."
        }
      },
      "getApproved(uint256)": {
        "details": "See {IERC721-getApproved}."
      },
      "isApprovedForAll(address,address)": {
        "details": "See {IERC721-isApprovedForAll}."
      },
      "name()": {
        "details": "See {IERC721Metadata-name}."
      },
      "ownerOf(uint256)": {
        "details": "See {IERC721-ownerOf}."
      },
      "safeTransferFrom(address,address,uint256)": {
        "details": "See {IERC721-safeTransferFrom}."
      },
      "safeTransferFrom(address,address,uint256,bytes)": {
        "details": "See {IERC721-safeTransferFrom}."
      },
      "setApprovalForAll(address,bool)": {
        "details": "See {IERC721-setApprovalForAll}."
      },
      "startAuction(uint256,uint256,uint256)": {
        "params": {
          "_end": "(uint256) represents a specific collectible's IPFS URI, carrying it's discription.       ",
          "_id": "(uint) represents the id associated to a specific .",
          "_minbid": "(uint256) represents a specific collectible's IPFS URI, carrying it's discription."
        },
        "returns": {
          "_success": "(bool) is returned on a sucessful invocation.  "
        }
      },
      "supportsInterface(bytes4)": {
        "details": "See {IERC165-supportsInterface}.     * Time complexity O(1), guaranteed to always use less than 30 000 gas."
      },
      "symbol()": {
        "details": "See {IERC721Metadata-symbol}."
      },
      "tokenByIndex(uint256)": {
        "details": "See {IERC721Enumerable-tokenByIndex}."
      },
      "tokenOfOwnerByIndex(address,uint256)": {
        "details": "See {IERC721Enumerable-tokenOfOwnerByIndex}."
      },
      "tokenURI(uint256)": {
        "details": "See {IERC721Metadata-tokenURI}."
      },
      "totalSupply()": {
        "details": "See {IERC721Enumerable-totalSupply}."
      },
      "transferFrom(address,address,uint256)": {
        "details": "See {IERC721-transferFrom}."
      }
    }
  },
  "userdoc": {
    "methods": {}
  }
}